{
  "_format": "hh-sol-artifact-1",
  "contractName": "MyEpicNFT",
  "sourceName": "contracts/MyEpicNFT.sol",
  "abi": [
    {
      "inputs": [],
      "stateMutability": "nonpayable",
      "type": "constructor"
    },
    {
      "anonymous": false,
      "inputs": [
        {
          "indexed": true,
          "internalType": "address",
          "name": "owner",
          "type": "address"
        },
        {
          "indexed": true,
          "internalType": "address",
          "name": "approved",
          "type": "address"
        },
        {
          "indexed": true,
          "internalType": "uint256",
          "name": "tokenId",
          "type": "uint256"
        }
      ],
      "name": "Approval",
      "type": "event"
    },
    {
      "anonymous": false,
      "inputs": [
        {
          "indexed": true,
          "internalType": "address",
          "name": "owner",
          "type": "address"
        },
        {
          "indexed": true,
          "internalType": "address",
          "name": "operator",
          "type": "address"
        },
        {
          "indexed": false,
          "internalType": "bool",
          "name": "approved",
          "type": "bool"
        }
      ],
      "name": "ApprovalForAll",
      "type": "event"
    },
    {
      "anonymous": false,
      "inputs": [
        {
          "indexed": true,
          "internalType": "address",
          "name": "from",
          "type": "address"
        },
        {
          "indexed": true,
          "internalType": "address",
          "name": "to",
          "type": "address"
        },
        {
          "indexed": true,
          "internalType": "uint256",
          "name": "tokenId",
          "type": "uint256"
        }
      ],
      "name": "Transfer",
      "type": "event"
    },
    {
      "inputs": [
        {
          "internalType": "address",
          "name": "to",
          "type": "address"
        },
        {
          "internalType": "uint256",
          "name": "tokenId",
          "type": "uint256"
        }
      ],
      "name": "approve",
      "outputs": [],
      "stateMutability": "nonpayable",
      "type": "function"
    },
    {
      "inputs": [
        {
          "internalType": "address",
          "name": "owner",
          "type": "address"
        }
      ],
      "name": "balanceOf",
      "outputs": [
        {
          "internalType": "uint256",
          "name": "",
          "type": "uint256"
        }
      ],
      "stateMutability": "view",
      "type": "function"
    },
    {
      "inputs": [
        {
          "internalType": "uint256",
          "name": "tokenId",
          "type": "uint256"
        }
      ],
      "name": "getApproved",
      "outputs": [
        {
          "internalType": "address",
          "name": "",
          "type": "address"
        }
      ],
      "stateMutability": "view",
      "type": "function"
    },
    {
      "inputs": [
        {
          "internalType": "address",
          "name": "owner",
          "type": "address"
        },
        {
          "internalType": "address",
          "name": "operator",
          "type": "address"
        }
      ],
      "name": "isApprovedForAll",
      "outputs": [
        {
          "internalType": "bool",
          "name": "",
          "type": "bool"
        }
      ],
      "stateMutability": "view",
      "type": "function"
    },
    {
      "inputs": [],
      "name": "makeAnEpicNFT",
      "outputs": [],
      "stateMutability": "nonpayable",
      "type": "function"
    },
    {
      "inputs": [],
      "name": "name",
      "outputs": [
        {
          "internalType": "string",
          "name": "",
          "type": "string"
        }
      ],
      "stateMutability": "view",
      "type": "function"
    },
    {
      "inputs": [
        {
          "internalType": "uint256",
          "name": "tokenId",
          "type": "uint256"
        }
      ],
      "name": "ownerOf",
      "outputs": [
        {
          "internalType": "address",
          "name": "",
          "type": "address"
        }
      ],
      "stateMutability": "view",
      "type": "function"
    },
    {
      "inputs": [
        {
          "internalType": "uint256",
          "name": "tokenId",
          "type": "uint256"
        },
        {
          "internalType": "string[]",
          "name": "listOfWords",
          "type": "string[]"
        }
      ],
      "name": "pickRandom",
      "outputs": [
        {
          "internalType": "string",
          "name": "",
          "type": "string"
        }
      ],
      "stateMutability": "pure",
      "type": "function"
    },
    {
      "inputs": [
        {
          "internalType": "address",
          "name": "from",
          "type": "address"
        },
        {
          "internalType": "address",
          "name": "to",
          "type": "address"
        },
        {
          "internalType": "uint256",
          "name": "tokenId",
          "type": "uint256"
        }
      ],
      "name": "safeTransferFrom",
      "outputs": [],
      "stateMutability": "nonpayable",
      "type": "function"
    },
    {
      "inputs": [
        {
          "internalType": "address",
          "name": "from",
          "type": "address"
        },
        {
          "internalType": "address",
          "name": "to",
          "type": "address"
        },
        {
          "internalType": "uint256",
          "name": "tokenId",
          "type": "uint256"
        },
        {
          "internalType": "bytes",
          "name": "_data",
          "type": "bytes"
        }
      ],
      "name": "safeTransferFrom",
      "outputs": [],
      "stateMutability": "nonpayable",
      "type": "function"
    },
    {
      "inputs": [
        {
          "internalType": "address",
          "name": "operator",
          "type": "address"
        },
        {
          "internalType": "bool",
          "name": "approved",
          "type": "bool"
        }
      ],
      "name": "setApprovalForAll",
      "outputs": [],
      "stateMutability": "nonpayable",
      "type": "function"
    },
    {
      "inputs": [
        {
          "internalType": "bytes4",
          "name": "interfaceId",
          "type": "bytes4"
        }
      ],
      "name": "supportsInterface",
      "outputs": [
        {
          "internalType": "bool",
          "name": "",
          "type": "bool"
        }
      ],
      "stateMutability": "view",
      "type": "function"
    },
    {
      "inputs": [],
      "name": "symbol",
      "outputs": [
        {
          "internalType": "string",
          "name": "",
          "type": "string"
        }
      ],
      "stateMutability": "view",
      "type": "function"
    },
    {
      "inputs": [
        {
          "internalType": "uint256",
          "name": "tokenId",
          "type": "uint256"
        }
      ],
      "name": "tokenURI",
      "outputs": [
        {
          "internalType": "string",
          "name": "",
          "type": "string"
        }
      ],
      "stateMutability": "view",
      "type": "function"
    },
    {
      "inputs": [
        {
          "internalType": "address",
          "name": "from",
          "type": "address"
        },
        {
          "internalType": "address",
          "name": "to",
          "type": "address"
        },
        {
          "internalType": "uint256",
          "name": "tokenId",
          "type": "uint256"
        }
      ],
      "name": "transferFrom",
      "outputs": [],
      "stateMutability": "nonpayable",
      "type": "function"
    }
  ],
  "bytecode": "0x608060405260405180610160016040528061012f8152602001620043a161012f913960089080519060200190620000389291906200067e565b506040518060c001604052806040518060400160405280600881526020017f4d4f554e5441494e00000000000000000000000000000000000000000000000081525081526020016040518060400160405280600581526020017f4f4345414e00000000000000000000000000000000000000000000000000000081525081526020016040518060400160405280600481526020017f534e4f570000000000000000000000000000000000000000000000000000000081525081526020016040518060400160405280600581526020017f505249444500000000000000000000000000000000000000000000000000000081525081526020016040518060400160405280600a81526020017f50484f544f47524150480000000000000000000000000000000000000000000081525081526020016040518060400160405280600581526020017f4d555349430000000000000000000000000000000000000000000000000000008152508152506009906006620001b69291906200070f565b506040518060c001604052806040518060400160405280600581526020017f425241564500000000000000000000000000000000000000000000000000000081525081526020016040518060400160405280600b81526020017f414456454e5455524f555300000000000000000000000000000000000000000081525081526020016040518060400160405280600881526020017f4152524f47414e5400000000000000000000000000000000000000000000000081525081526020016040518060400160405280600681526020017f434c45564552000000000000000000000000000000000000000000000000000081525081526020016040518060400160405280600581526020017f46414e435900000000000000000000000000000000000000000000000000000081525081526020016040518060400160405280600581526020017f46554e4e59000000000000000000000000000000000000000000000000000000815250815250600a906006620003349291906200070f565b506040518060c001604052806040518060400160405280600681526020017f4b494e444c59000000000000000000000000000000000000000000000000000081525081526020016040518060400160405280600981526020017f4a45414c4f55534c59000000000000000000000000000000000000000000000081525081526020016040518060400160405280600681526020017f4e4541524c59000000000000000000000000000000000000000000000000000081525081526020016040518060400160405280600681526020017f525544454c59000000000000000000000000000000000000000000000000000081525081526020016040518060400160405280600681526020017f5348494c5659000000000000000000000000000000000000000000000000000081525081526020016040518060400160405280600881526020017f53554444454e4c59000000000000000000000000000000000000000000000000815250815250600b906006620004b29291906200070f565b50348015620004c057600080fd5b506040518060400160405280600981526020017f5371756172654e465400000000000000000000000000000000000000000000008152506040518060400160405280600681526020017f53515541524500000000000000000000000000000000000000000000000000008152508160009080519060200190620005459291906200067e565b5080600190805190602001906200055e9291906200067e565b505050620005ac6040518060400160405280601e81526020017f54686973206973206d79204e465420636f6e74726163742e2057686f61210000815250620005b260201b620010171760201c565b62000930565b6200065281604051602401620005c9919062000844565b6040516020818303038152906040527f41304fac000000000000000000000000000000000000000000000000000000007bffffffffffffffffffffffffffffffffffffffffffffffffffffffff19166020820180517bffffffffffffffffffffffffffffffffffffffffffffffffffffffff83818316178352505050506200065560201b60201c565b50565b60008151905060006a636f6e736f6c652e6c6f679050602083016000808483855afa5050505050565b8280546200068c90620008ba565b90600052602060002090601f016020900481019282620006b05760008555620006fc565b82601f10620006cb57805160ff1916838001178555620006fc565b82800160010185558215620006fc579182015b82811115620006fb578251825591602001919060010190620006de565b5b5090506200070b919062000776565b5090565b82805482825590600052602060002090810192821562000763579160200282015b8281111562000762578251829080519060200190620007519291906200067e565b509160200191906001019062000730565b5b50905062000772919062000795565b5090565b5b808211156200079157600081600090555060010162000777565b5090565b5b80821115620007b95760008181620007af9190620007bd565b5060010162000796565b5090565b508054620007cb90620008ba565b6000825580601f10620007df575062000800565b601f016020900490600052602060002090810190620007ff919062000776565b5b50565b6000620008108262000868565b6200081c818562000873565b93506200082e81856020860162000884565b62000839816200091f565b840191505092915050565b6000602082019050818103600083015262000860818462000803565b905092915050565b600081519050919050565b600082825260208201905092915050565b60005b83811015620008a457808201518184015260208101905062000887565b83811115620008b4576000848401525b50505050565b60006002820490506001821680620008d357607f821691505b60208210811415620008ea57620008e9620008f0565b5b50919050565b7f4e487b7100000000000000000000000000000000000000000000000000000000600052602260045260246000fd5b6000601f19601f8301169050919050565b613a6180620009406000396000f3fe608060405234801561001057600080fd5b50600436106100f55760003560e01c80636b5c6e0711610097578063b88d4fde11610066578063b88d4fde14610296578063c87b56dd146102b2578063de9d132f146102e2578063e985e9c5146102ec576100f5565b80636b5c6e07146101fc57806370a082311461022c57806395d89b411461025c578063a22cb4651461027a576100f5565b8063095ea7b3116100d3578063095ea7b31461017857806323b872dd1461019457806342842e0e146101b05780636352211e146101cc576100f5565b806301ffc9a7146100fa57806306fdde031461012a578063081812fc14610148575b600080fd5b610114600480360381019061010f919061252f565b61031c565b6040516101219190612c1f565b60405180910390f35b6101326103fe565b60405161013f9190612c3a565b60405180910390f35b610162600480360381019061015d9190612581565b610490565b60405161016f9190612bb8565b60405180910390f35b610192600480360381019061018d91906124f3565b610515565b005b6101ae60048036038101906101a991906123ed565b61062d565b005b6101ca60048036038101906101c591906123ed565b61068d565b005b6101e660048036038101906101e19190612581565b6106ad565b6040516101f39190612bb8565b60405180910390f35b610216600480360381019061021191906125aa565b61075f565b6040516102239190612c3a565b60405180910390f35b61024660048036038101906102419190612388565b6107ee565b6040516102539190612e9a565b60405180910390f35b6102646108a6565b6040516102719190612c3a565b60405180910390f35b610294600480360381019061028f91906124b7565b610938565b005b6102b060048036038101906102ab919061243c565b61094e565b005b6102cc60048036038101906102c79190612581565b6109b0565b6040516102d99190612c3a565b60405180910390f35b6102ea610b02565b005b610306600480360381019061030191906123b1565b610f83565b6040516103139190612c1f565b60405180910390f35b60007f80ac58cd000000000000000000000000000000000000000000000000000000007bffffffffffffffffffffffffffffffffffffffffffffffffffffffff1916827bffffffffffffffffffffffffffffffffffffffffffffffffffffffff191614806103e757507f5b5e139f000000000000000000000000000000000000000000000000000000007bffffffffffffffffffffffffffffffffffffffffffffffffffffffff1916827bffffffffffffffffffffffffffffffffffffffffffffffffffffffff1916145b806103f757506103f6826110b0565b5b9050919050565b60606000805461040d9061318b565b80601f01602080910402602001604051908101604052809291908181526020018280546104399061318b565b80156104865780601f1061045b57610100808354040283529160200191610486565b820191906000526020600020905b81548152906001019060200180831161046957829003601f168201915b5050505050905090565b600061049b8261111a565b6104da576040517f08c379a00000000000000000000000000000000000000000000000000000000081526004016104d190612dfa565b60405180910390fd5b6004600083815260200190815260200160002060009054906101000a900473ffffffffffffffffffffffffffffffffffffffff169050919050565b6000610520826106ad565b90508073ffffffffffffffffffffffffffffffffffffffff168373ffffffffffffffffffffffffffffffffffffffff161415610591576040517f08c379a000000000000000000000000000000000000000000000000000000000815260040161058890612e5a565b60405180910390fd5b8073ffffffffffffffffffffffffffffffffffffffff166105b0611186565b73ffffffffffffffffffffffffffffffffffffffff1614806105df57506105de816105d9611186565b610f83565b5b61061e576040517f08c379a000000000000000000000000000000000000000000000000000000000815260040161061590612d3a565b60405180910390fd5b610628838361118e565b505050565b61063e610638611186565b82611247565b61067d576040517f08c379a000000000000000000000000000000000000000000000000000000000815260040161067490612e7a565b60405180910390fd5b610688838383611325565b505050565b6106a88383836040518060200160405280600081525061094e565b505050565b6000806002600084815260200190815260200160002060009054906101000a900473ffffffffffffffffffffffffffffffffffffffff169050600073ffffffffffffffffffffffffffffffffffffffff168173ffffffffffffffffffffffffffffffffffffffff161415610756576040517f08c379a000000000000000000000000000000000000000000000000000000000815260040161074d90612d7a565b60405180910390fd5b80915050919050565b6060600061079361076f85611581565b60405160200161077f9190612b2f565b60405160208183030381529060405261172e565b90508251816107a29190613237565b90508281815181106107dd577f4e487b7100000000000000000000000000000000000000000000000000000000600052603260045260246000fd5b602002602001015191505092915050565b60008073ffffffffffffffffffffffffffffffffffffffff168273ffffffffffffffffffffffffffffffffffffffff16141561085f576040517f08c379a000000000000000000000000000000000000000000000000000000000815260040161085690612d5a565b60405180910390fd5b600360008373ffffffffffffffffffffffffffffffffffffffff1673ffffffffffffffffffffffffffffffffffffffff168152602001908152602001600020549050919050565b6060600180546108b59061318b565b80601f01602080910402602001604051908101604052809291908181526020018280546108e19061318b565b801561092e5780601f106109035761010080835404028352916020019161092e565b820191906000526020600020905b81548152906001019060200180831161091157829003601f168201915b5050505050905090565b61094a610943611186565b8383611761565b5050565b61095f610959611186565b83611247565b61099e576040517f08c379a000000000000000000000000000000000000000000000000000000000815260040161099590612e7a565b60405180910390fd5b6109aa848484846118ce565b50505050565b60606109bb8261111a565b6109fa576040517f08c379a00000000000000000000000000000000000000000000000000000000081526004016109f190612dda565b60405180910390fd5b6000600660008481526020019081526020016000208054610a1a9061318b565b80601f0160208091040260200160405190810160405280929190818152602001828054610a469061318b565b8015610a935780601f10610a6857610100808354040283529160200191610a93565b820191906000526020600020905b815481529060010190602001808311610a7657829003601f168201915b505050505090506000610aa461192a565b9050600081511415610aba578192505050610afd565b600082511115610aef578082604051602001610ad7929190612a89565b60405160208183030381529060405292505050610afd565b610af884611941565b925050505b919050565b6000610b0e60076119e8565b9050610b4e6040518060400160405280601581526020017f0a2d2d2d2d2d2d2d2d2d2d2d2d2d2d2d2d2d2d2d2d0000000000000000000000815250611017565b6000610c2b826009805480602002602001604051908101604052809291908181526020016000905b82821015610c22578382906000526020600020018054610b959061318b565b80601f0160208091040260200160405190810160405280929190818152602001828054610bc19061318b565b8015610c0e5780601f10610be357610100808354040283529160200191610c0e565b820191906000526020600020905b815481529060010190602001808311610bf157829003601f168201915b505050505081526020019060010190610b76565b5050505061075f565b90506000610d0a83600a805480602002602001604051908101604052809291908181526020016000905b82821015610d01578382906000526020600020018054610c749061318b565b80601f0160208091040260200160405190810160405280929190818152602001828054610ca09061318b565b8015610ced5780601f10610cc257610100808354040283529160200191610ced565b820191906000526020600020905b815481529060010190602001808311610cd057829003601f168201915b505050505081526020019060010190610c55565b5050505061075f565b90506000610de984600b805480602002602001604051908101604052809291908181526020016000905b82821015610de0578382906000526020600020018054610d539061318b565b80601f0160208091040260200160405190810160405280929190818152602001828054610d7f9061318b565b8015610dcc5780601f10610da157610100808354040283529160200191610dcc565b820191906000526020600020905b815481529060010190602001808311610daf57829003601f168201915b505050505081526020019060010190610d34565b5050505061075f565b90506000838383604051602001610e0293929190612aad565b60405160208183030381529060405290506000600882604051602001610e29929190612ade565b60405160208183030381529060405290506000610e6e83610e49846119f6565b604051602001610e5a929190612b51565b6040516020818303038152906040526119f6565b9050600081604051602001610e839190612b96565b6040516020818303038152906040529050610ed26040518060400160405280601581526020017f0a2d2d2d2d2d2d2d2d2d2d2d2d2d2d2d2d2d2d2d2d0000000000000000000000815250611017565b610efa81604051602001610ee69190612b0d565b604051602081830303815290604052611017565b610f386040518060400160405280601581526020017f2d2d2d2d2d2d2d2d2d2d2d2d2d2d2d2d2d2d2d2d0a0000000000000000000000815250611017565b610f423389611bb4565b610f4c8882611bd2565b610f566007611c46565b610f796040518060600160405280602581526020016139c7602591398933611c5c565b5050505050505050565b6000600560008473ffffffffffffffffffffffffffffffffffffffff1673ffffffffffffffffffffffffffffffffffffffff16815260200190815260200160002060008373ffffffffffffffffffffffffffffffffffffffff1673ffffffffffffffffffffffffffffffffffffffff16815260200190815260200160002060009054906101000a900460ff16905092915050565b6110ad8160405160240161102b9190612c3a565b6040516020818303038152906040527f41304fac000000000000000000000000000000000000000000000000000000007bffffffffffffffffffffffffffffffffffffffffffffffffffffffff19166020820180517bffffffffffffffffffffffffffffffffffffffffffffffffffffffff8381831617835250505050611cfb565b50565b60007f01ffc9a7000000000000000000000000000000000000000000000000000000007bffffffffffffffffffffffffffffffffffffffffffffffffffffffff1916827bffffffffffffffffffffffffffffffffffffffffffffffffffffffff1916149050919050565b60008073ffffffffffffffffffffffffffffffffffffffff166002600084815260200190815260200160002060009054906101000a900473ffffffffffffffffffffffffffffffffffffffff1673ffffffffffffffffffffffffffffffffffffffff1614159050919050565b600033905090565b816004600083815260200190815260200160002060006101000a81548173ffffffffffffffffffffffffffffffffffffffff021916908373ffffffffffffffffffffffffffffffffffffffff160217905550808273ffffffffffffffffffffffffffffffffffffffff16611201836106ad565b73ffffffffffffffffffffffffffffffffffffffff167f8c5be1e5ebec7d5bd14f71427d1e84f3dd0314c0f7b2291e5b200ac8c7c3b92560405160405180910390a45050565b60006112528261111a565b611291576040517f08c379a000000000000000000000000000000000000000000000000000000000815260040161128890612d1a565b60405180910390fd5b600061129c836106ad565b90508073ffffffffffffffffffffffffffffffffffffffff168473ffffffffffffffffffffffffffffffffffffffff16148061130b57508373ffffffffffffffffffffffffffffffffffffffff166112f384610490565b73ffffffffffffffffffffffffffffffffffffffff16145b8061131c575061131b8185610f83565b5b91505092915050565b8273ffffffffffffffffffffffffffffffffffffffff16611345826106ad565b73ffffffffffffffffffffffffffffffffffffffff161461139b576040517f08c379a000000000000000000000000000000000000000000000000000000000815260040161139290612e1a565b60405180910390fd5b600073ffffffffffffffffffffffffffffffffffffffff168273ffffffffffffffffffffffffffffffffffffffff16141561140b576040517f08c379a000000000000000000000000000000000000000000000000000000000815260040161140290612cda565b60405180910390fd5b611416838383611d24565b61142160008261118e565b6001600360008573ffffffffffffffffffffffffffffffffffffffff1673ffffffffffffffffffffffffffffffffffffffff168152602001908152602001600020600082825461147191906130a1565b925050819055506001600360008473ffffffffffffffffffffffffffffffffffffffff1673ffffffffffffffffffffffffffffffffffffffff16815260200190815260200160002060008282546114c89190612fc0565b92505081905550816002600083815260200190815260200160002060006101000a81548173ffffffffffffffffffffffffffffffffffffffff021916908373ffffffffffffffffffffffffffffffffffffffff160217905550808273ffffffffffffffffffffffffffffffffffffffff168473ffffffffffffffffffffffffffffffffffffffff167fddf252ad1be2c89b69c2b068fc378daa952ba7f163c4a11628f55a4df523b3ef60405160405180910390a4505050565b606060008214156115c9576040518060400160405280600181526020017f30000000000000000000000000000000000000000000000000000000000000008152509050611729565b600082905060005b600082146115fb5780806115e4906131ee565b915050600a826115f49190613016565b91506115d1565b60008167ffffffffffffffff81111561163d577f4e487b7100000000000000000000000000000000000000000000000000000000600052604160045260246000fd5b6040519080825280601f01601f19166020018201604052801561166f5781602001600182028036833780820191505090505b5090505b600085146117225760018261168891906130a1565b9150600a856116979190613237565b60306116a39190612fc0565b60f81b8183815181106116df577f4e487b7100000000000000000000000000000000000000000000000000000000600052603260045260246000fd5b60200101907effffffffffffffffffffffffffffffffffffffffffffffffffffffffffffff1916908160001a905350600a8561171b9190613016565b9450611673565b8093505050505b919050565b6000816040516020016117419190612a72565b6040516020818303038152906040528051906020012060001c9050919050565b8173ffffffffffffffffffffffffffffffffffffffff168373ffffffffffffffffffffffffffffffffffffffff1614156117d0576040517f08c379a00000000000000000000000000000000000000000000000000000000081526004016117c790612cfa565b60405180910390fd5b80600560008573ffffffffffffffffffffffffffffffffffffffff1673ffffffffffffffffffffffffffffffffffffffff16815260200190815260200160002060008473ffffffffffffffffffffffffffffffffffffffff1673ffffffffffffffffffffffffffffffffffffffff16815260200190815260200160002060006101000a81548160ff0219169083151502179055508173ffffffffffffffffffffffffffffffffffffffff168373ffffffffffffffffffffffffffffffffffffffff167f17307eab39ab6107e8899845ad3d59bd9653f200f220920489ca2b5937696c31836040516118c19190612c1f565b60405180910390a3505050565b6118d9848484611325565b6118e584848484611d29565b611924576040517f08c379a000000000000000000000000000000000000000000000000000000000815260040161191b90612c9a565b60405180910390fd5b50505050565b606060405180602001604052806000815250905090565b606061194c8261111a565b61198b576040517f08c379a000000000000000000000000000000000000000000000000000000000815260040161198290612e3a565b60405180910390fd5b600061199561192a565b905060008151116119b557604051806020016040528060008152506119e0565b806119bf84611581565b6040516020016119d0929190612a89565b6040516020818303038152906040525b915050919050565b600081600001549050919050565b60606000825190506000811415611a1f5760405180602001604052806000815250915050611baf565b60006003600283611a309190612fc0565b611a3a9190613016565b6004611a469190613047565b90506000602082611a579190612fc0565b67ffffffffffffffff811115611a96577f4e487b7100000000000000000000000000000000000000000000000000000000600052604160045260246000fd5b6040519080825280601f01601f191660200182016040528015611ac85781602001600182028036833780820191505090505b50905060006040518060600160405280604081526020016139ec604091399050600181016020830160005b86811015611b6c5760038101905062ffffff818a015116603f8160121c168401518060081b905060ff603f83600c1c1686015116810190508060081b905060ff603f8360061c1686015116810190508060081b905060ff603f831686015116810190508060e01b90508084526004840193505050611af3565b506003860660018114611b865760028114611b9657611ba1565b613d3d60f01b6002830352611ba1565b603d60f81b60018303525b508484525050819450505050505b919050565b611bce828260405180602001604052806000815250611ec0565b5050565b611bdb8261111a565b611c1a576040517f08c379a0000000000000000000000000000000000000000000000000000000008152600401611c1190612d9a565b60405180910390fd5b80600660008481526020019081526020016000209080519060200190611c419291906120fc565b505050565b6001816000016000828254019250508190555050565b611cf6838383604051602401611c7493929190612c5c565b6040516020818303038152906040527fe3849f79000000000000000000000000000000000000000000000000000000007bffffffffffffffffffffffffffffffffffffffffffffffffffffffff19166020820180517bffffffffffffffffffffffffffffffffffffffffffffffffffffffff8381831617835250505050611cfb565b505050565b60008151905060006a636f6e736f6c652e6c6f679050602083016000808483855afa5050505050565b505050565b6000611d4a8473ffffffffffffffffffffffffffffffffffffffff16611f1b565b15611eb3578373ffffffffffffffffffffffffffffffffffffffff1663150b7a02611d73611186565b8786866040518563ffffffff1660e01b8152600401611d959493929190612bd3565b602060405180830381600087803b158015611daf57600080fd5b505af1925050508015611de057506040513d601f19601f82011682018060405250810190611ddd9190612558565b60015b611e63573d8060008114611e10576040519150601f19603f3d011682016040523d82523d6000602084013e611e15565b606091505b50600081511415611e5b576040517f08c379a0000000000000000000000000000000000000000000000000000000008152600401611e5290612c9a565b60405180910390fd5b805181602001fd5b63150b7a0260e01b7bffffffffffffffffffffffffffffffffffffffffffffffffffffffff1916817bffffffffffffffffffffffffffffffffffffffffffffffffffffffff191614915050611eb8565b600190505b949350505050565b611eca8383611f2e565b611ed76000848484611d29565b611f16576040517f08c379a0000000000000000000000000000000000000000000000000000000008152600401611f0d90612c9a565b60405180910390fd5b505050565b600080823b905060008111915050919050565b600073ffffffffffffffffffffffffffffffffffffffff168273ffffffffffffffffffffffffffffffffffffffff161415611f9e576040517f08c379a0000000000000000000000000000000000000000000000000000000008152600401611f9590612dba565b60405180910390fd5b611fa78161111a565b15611fe7576040517f08c379a0000000000000000000000000000000000000000000000000000000008152600401611fde90612cba565b60405180910390fd5b611ff360008383611d24565b6001600360008473ffffffffffffffffffffffffffffffffffffffff1673ffffffffffffffffffffffffffffffffffffffff16815260200190815260200160002060008282546120439190612fc0565b92505081905550816002600083815260200190815260200160002060006101000a81548173ffffffffffffffffffffffffffffffffffffffff021916908373ffffffffffffffffffffffffffffffffffffffff160217905550808273ffffffffffffffffffffffffffffffffffffffff16600073ffffffffffffffffffffffffffffffffffffffff167fddf252ad1be2c89b69c2b068fc378daa952ba7f163c4a11628f55a4df523b3ef60405160405180910390a45050565b8280546121089061318b565b90600052602060002090601f01602090048101928261212a5760008555612171565b82601f1061214357805160ff1916838001178555612171565b82800160010185558215612171579182015b82811115612170578251825591602001919060010190612155565b5b50905061217e9190612182565b5090565b5b8082111561219b576000816000905550600101612183565b5090565b60006121b26121ad84612eda565b612eb5565b905080838252602082019050828560208602820111156121d157600080fd5b60005b8581101561221b57813567ffffffffffffffff8111156121f357600080fd5b8086016122008982612349565b855260208501945060208401935050506001810190506121d4565b5050509392505050565b600061223861223384612f06565b612eb5565b90508281526020810184848401111561225057600080fd5b61225b848285613149565b509392505050565b600061227661227184612f37565b612eb5565b90508281526020810184848401111561228e57600080fd5b612299848285613149565b509392505050565b6000813590506122b08161396a565b92915050565b600082601f8301126122c757600080fd5b81356122d784826020860161219f565b91505092915050565b6000813590506122ef81613981565b92915050565b60008135905061230481613998565b92915050565b60008151905061231981613998565b92915050565b600082601f83011261233057600080fd5b8135612340848260208601612225565b91505092915050565b600082601f83011261235a57600080fd5b813561236a848260208601612263565b91505092915050565b600081359050612382816139af565b92915050565b60006020828403121561239a57600080fd5b60006123a8848285016122a1565b91505092915050565b600080604083850312156123c457600080fd5b60006123d2858286016122a1565b92505060206123e3858286016122a1565b9150509250929050565b60008060006060848603121561240257600080fd5b6000612410868287016122a1565b9350506020612421868287016122a1565b925050604061243286828701612373565b9150509250925092565b6000806000806080858703121561245257600080fd5b6000612460878288016122a1565b9450506020612471878288016122a1565b935050604061248287828801612373565b925050606085013567ffffffffffffffff81111561249f57600080fd5b6124ab8782880161231f565b91505092959194509250565b600080604083850312156124ca57600080fd5b60006124d8858286016122a1565b92505060206124e9858286016122e0565b9150509250929050565b6000806040838503121561250657600080fd5b6000612514858286016122a1565b925050602061252585828601612373565b9150509250929050565b60006020828403121561254157600080fd5b600061254f848285016122f5565b91505092915050565b60006020828403121561256a57600080fd5b60006125788482850161230a565b91505092915050565b60006020828403121561259357600080fd5b60006125a184828501612373565b91505092915050565b600080604083850312156125bd57600080fd5b60006125cb85828601612373565b925050602083013567ffffffffffffffff8111156125e857600080fd5b6125f4858286016122b6565b9150509250929050565b612607816130d5565b82525050565b612616816130e7565b82525050565b600061262782612f7d565b6126318185612f93565b9350612641818560208601613158565b61264a81613324565b840191505092915050565b600061266082612f88565b61266a8185612fa4565b935061267a818560208601613158565b61268381613324565b840191505092915050565b600061269982612f88565b6126a38185612fb5565b93506126b3818560208601613158565b80840191505092915050565b600081546126cc8161318b565b6126d68186612fb5565b945060018216600081146126f1576001811461270257612735565b60ff19831686528186019350612735565b61270b85612f68565b60005b8381101561272d5781548189015260018201915060208101905061270e565b838801955050505b50505092915050565b600061274b602583612fb5565b915061275682613335565b602582019050919050565b600061276e603283612fa4565b915061277982613384565b604082019050919050565b6000612791601c83612fa4565b915061279c826133d3565b602082019050919050565b60006127b4602483612fa4565b91506127bf826133fc565b604082019050919050565b60006127d7601983612fa4565b91506127e28261344b565b602082019050919050565b60006127fa600c83612fb5565b915061280582613474565b600c82019050919050565b600061281d602c83612fa4565b91506128288261349d565b604082019050919050565b6000612840600d83612fb5565b915061284b826134ec565b600d82019050919050565b6000612863603883612fa4565b915061286e82613515565b604082019050919050565b6000612886602a83612fa4565b915061289182613564565b604082019050919050565b60006128a9602983612fa4565b91506128b4826135b3565b604082019050919050565b60006128cc602e83612fa4565b91506128d782613602565b604082019050919050565b60006128ef600283612fb5565b91506128fa82613651565b600282019050919050565b6000612912602083612fa4565b915061291d8261367a565b602082019050919050565b6000612935603183612fa4565b9150612940826136a3565b604082019050919050565b6000612958602c83612fa4565b9150612963826136f2565b604082019050919050565b600061297b602983612fa4565b915061298682613741565b604082019050919050565b600061299e606183612fb5565b91506129a982613790565b606182019050919050565b60006129c1602f83612fa4565b91506129cc8261382b565b604082019050919050565b60006129e4600a83612fb5565b91506129ef8261387a565b600a82019050919050565b6000612a07602183612fa4565b9150612a12826138a3565b604082019050919050565b6000612a2a601d83612fb5565b9150612a35826138f2565b601d82019050919050565b6000612a4d603183612fa4565b9150612a588261391b565b604082019050919050565b612a6c8161313f565b82525050565b6000612a7e828461268e565b915081905092915050565b6000612a95828561268e565b9150612aa1828461268e565b91508190509392505050565b6000612ab9828661268e565b9150612ac5828561268e565b9150612ad1828461268e565b9150819050949350505050565b6000612aea82856126bf565b9150612af6828461268e565b9150612b0182612833565b91508190509392505050565b6000612b188261273e565b9150612b24828461268e565b915081905092915050565b6000612b3a826127ed565b9150612b46828461268e565b915081905092915050565b6000612b5c826129d7565b9150612b68828561268e565b9150612b7382612991565b9150612b7f828461268e565b9150612b8a826128e2565b91508190509392505050565b6000612ba182612a1d565b9150612bad828461268e565b915081905092915050565b6000602082019050612bcd60008301846125fe565b92915050565b6000608082019050612be860008301876125fe565b612bf560208301866125fe565b612c026040830185612a63565b8181036060830152612c14818461261c565b905095945050505050565b6000602082019050612c34600083018461260d565b92915050565b60006020820190508181036000830152612c548184612655565b905092915050565b60006060820190508181036000830152612c768186612655565b9050612c856020830185612a63565b612c9260408301846125fe565b949350505050565b60006020820190508181036000830152612cb381612761565b9050919050565b60006020820190508181036000830152612cd381612784565b9050919050565b60006020820190508181036000830152612cf3816127a7565b9050919050565b60006020820190508181036000830152612d13816127ca565b9050919050565b60006020820190508181036000830152612d3381612810565b9050919050565b60006020820190508181036000830152612d5381612856565b9050919050565b60006020820190508181036000830152612d7381612879565b9050919050565b60006020820190508181036000830152612d938161289c565b9050919050565b60006020820190508181036000830152612db3816128bf565b9050919050565b60006020820190508181036000830152612dd381612905565b9050919050565b60006020820190508181036000830152612df381612928565b9050919050565b60006020820190508181036000830152612e138161294b565b9050919050565b60006020820190508181036000830152612e338161296e565b9050919050565b60006020820190508181036000830152612e53816129b4565b9050919050565b60006020820190508181036000830152612e73816129fa565b9050919050565b60006020820190508181036000830152612e9381612a40565b9050919050565b6000602082019050612eaf6000830184612a63565b92915050565b6000612ebf612ed0565b9050612ecb82826131bd565b919050565b6000604051905090565b600067ffffffffffffffff821115612ef557612ef46132f5565b5b602082029050602081019050919050565b600067ffffffffffffffff821115612f2157612f206132f5565b5b612f2a82613324565b9050602081019050919050565b600067ffffffffffffffff821115612f5257612f516132f5565b5b612f5b82613324565b9050602081019050919050565b60008190508160005260206000209050919050565b600081519050919050565b600081519050919050565b600082825260208201905092915050565b600082825260208201905092915050565b600081905092915050565b6000612fcb8261313f565b9150612fd68361313f565b9250827fffffffffffffffffffffffffffffffffffffffffffffffffffffffffffffffff0382111561300b5761300a613268565b5b828201905092915050565b60006130218261313f565b915061302c8361313f565b92508261303c5761303b613297565b5b828204905092915050565b60006130528261313f565b915061305d8361313f565b9250817fffffffffffffffffffffffffffffffffffffffffffffffffffffffffffffffff048311821515161561309657613095613268565b5b828202905092915050565b60006130ac8261313f565b91506130b78361313f565b9250828210156130ca576130c9613268565b5b828203905092915050565b60006130e08261311f565b9050919050565b60008115159050919050565b60007fffffffff0000000000000000000000000000000000000000000000000000000082169050919050565b600073ffffffffffffffffffffffffffffffffffffffff82169050919050565b6000819050919050565b82818337600083830152505050565b60005b8381101561317657808201518184015260208101905061315b565b83811115613185576000848401525b50505050565b600060028204905060018216806131a357607f821691505b602082108114156131b7576131b66132c6565b5b50919050565b6131c682613324565b810181811067ffffffffffffffff821117156131e5576131e46132f5565b5b80604052505050565b60006131f98261313f565b91507fffffffffffffffffffffffffffffffffffffffffffffffffffffffffffffffff82141561322c5761322b613268565b5b600182019050919050565b60006132428261313f565b915061324d8361313f565b92508261325d5761325c613297565b5b828206905092915050565b7f4e487b7100000000000000000000000000000000000000000000000000000000600052601160045260246000fd5b7f4e487b7100000000000000000000000000000000000000000000000000000000600052601260045260246000fd5b7f4e487b7100000000000000000000000000000000000000000000000000000000600052602260045260246000fd5b7f4e487b7100000000000000000000000000000000000000000000000000000000600052604160045260246000fd5b6000601f19601f8301169050919050565b7f68747470733a2f2f6e6674707265766965772e30786465762e636f6465732f3f60008201527f636f64653d000000000000000000000000000000000000000000000000000000602082015250565b7f4552433732313a207472616e7366657220746f206e6f6e20455243373231526560008201527f63656976657220696d706c656d656e7465720000000000000000000000000000602082015250565b7f4552433732313a20746f6b656e20616c7265616479206d696e74656400000000600082015250565b7f4552433732313a207472616e7366657220746f20746865207a65726f2061646460008201527f7265737300000000000000000000000000000000000000000000000000000000602082015250565b7f4552433732313a20617070726f766520746f2063616c6c657200000000000000600082015250565b7f4d4958494e475f574f5244530000000000000000000000000000000000000000600082015250565b7f4552433732313a206f70657261746f7220717565727920666f72206e6f6e657860008201527f697374656e7420746f6b656e0000000000000000000000000000000000000000602082015250565b7f3c2f746578743e3c2f7376673e00000000000000000000000000000000000000600082015250565b7f4552433732313a20617070726f76652063616c6c6572206973206e6f74206f7760008201527f6e6572206e6f7220617070726f76656420666f7220616c6c0000000000000000602082015250565b7f4552433732313a2062616c616e636520717565727920666f7220746865207a6560008201527f726f206164647265737300000000000000000000000000000000000000000000602082015250565b7f4552433732313a206f776e657220717565727920666f72206e6f6e657869737460008201527f656e7420746f6b656e0000000000000000000000000000000000000000000000602082015250565b7f45524337323155524953746f726167653a2055524920736574206f66206e6f6e60008201527f6578697374656e7420746f6b656e000000000000000000000000000000000000602082015250565b7f227d000000000000000000000000000000000000000000000000000000000000600082015250565b7f4552433732313a206d696e7420746f20746865207a65726f2061646472657373600082015250565b7f45524337323155524953746f726167653a2055524920717565727920666f722060008201527f6e6f6e6578697374656e7420746f6b656e000000000000000000000000000000602082015250565b7f4552433732313a20617070726f76656420717565727920666f72206e6f6e657860008201527f697374656e7420746f6b656e0000000000000000000000000000000000000000602082015250565b7f4552433732313a207472616e73666572206f6620746f6b656e2074686174206960008201527f73206e6f74206f776e0000000000000000000000000000000000000000000000602082015250565b7f222c20226465736372697074696f6e223a20224120686967686c79206163636c60008201527f61696d656420636f6c6c656374696f6e206f6620776f7264732e222c2022696d60208201527f616765223a2022646174613a696d6167652f7376672b786d6c3b62617365363460408201527f2c00000000000000000000000000000000000000000000000000000000000000606082015250565b7f4552433732314d657461646174613a2055524920717565727920666f72206e6f60008201527f6e6578697374656e7420746f6b656e0000000000000000000000000000000000602082015250565b7f7b226e616d65223a202200000000000000000000000000000000000000000000600082015250565b7f4552433732313a20617070726f76616c20746f2063757272656e74206f776e6560008201527f7200000000000000000000000000000000000000000000000000000000000000602082015250565b7f646174613a6170706c69636174696f6e2f6a736f6e3b6261736536342c000000600082015250565b7f4552433732313a207472616e736665722063616c6c6572206973206e6f74206f60008201527f776e6572206e6f7220617070726f766564000000000000000000000000000000602082015250565b613973816130d5565b811461397e57600080fd5b50565b61398a816130e7565b811461399557600080fd5b50565b6139a1816130f3565b81146139ac57600080fd5b50565b6139b88161313f565b81146139c357600080fd5b5056fe416e204e465420772f20494420257320686173206265656e206d696e74656420746f2025734142434445464748494a4b4c4d4e4f505152535455565758595a6162636465666768696a6b6c6d6e6f707172737475767778797a303132333435363738392b2fa2646970667358221220f64b9d8f8ec61a5846de15434a1a2cacb0830887c798db7ed00dcac8bc9c056f64736f6c634300080400333c73766720786d6c6e733d27687474703a2f2f7777772e77332e6f72672f323030302f73766727207072657365727665417370656374526174696f3d27784d696e594d696e206d656574272076696577426f783d273020302033353020333530273e3c7374796c653e2e62617365207b2066696c6c3a2077686974653b20666f6e742d66616d696c793a2073657269663b20666f6e742d73697a653a20323470783b207d3c2f7374796c653e3c726563742077696474683d273130302527206865696768743d2731303025272066696c6c3d27626c61636b27202f3e3c7465787420783d273530252720793d273530252720636c6173733d27626173652720646f6d696e616e742d626173656c696e653d276d6964646c652720746578742d616e63686f723d276d6964646c65273e",
  "linkReferences": {},
  "deployedLinkReferences": {}
}