{
  "_format": "hh-sol-artifact-1",
  "contractName": "MyEpicNFT",
  "sourceName": "contracts/MyEpicNFT.sol",
  "abi": [
    {
      "inputs": [],
      "stateMutability": "nonpayable",
      "type": "constructor"
    },
    {
      "anonymous": false,
      "inputs": [
        {
          "indexed": true,
          "internalType": "address",
          "name": "owner",
          "type": "address"
        },
        {
          "indexed": true,
          "internalType": "address",
          "name": "approved",
          "type": "address"
        },
        {
          "indexed": true,
          "internalType": "uint256",
          "name": "tokenId",
          "type": "uint256"
        }
      ],
      "name": "Approval",
      "type": "event"
    },
    {
      "anonymous": false,
      "inputs": [
        {
          "indexed": true,
          "internalType": "address",
          "name": "owner",
          "type": "address"
        },
        {
          "indexed": true,
          "internalType": "address",
          "name": "operator",
          "type": "address"
        },
        {
          "indexed": false,
          "internalType": "bool",
          "name": "approved",
          "type": "bool"
        }
      ],
      "name": "ApprovalForAll",
      "type": "event"
    },
    {
      "anonymous": false,
      "inputs": [
        {
          "indexed": false,
          "internalType": "address",
          "name": "sender",
          "type": "address"
        },
        {
          "indexed": false,
          "internalType": "uint256",
          "name": "tokenId",
          "type": "uint256"
        }
      ],
      "name": "NewEpicNFTMinted",
      "type": "event"
    },
    {
      "anonymous": false,
      "inputs": [
        {
          "indexed": true,
          "internalType": "address",
          "name": "from",
          "type": "address"
        },
        {
          "indexed": true,
          "internalType": "address",
          "name": "to",
          "type": "address"
        },
        {
          "indexed": true,
          "internalType": "uint256",
          "name": "tokenId",
          "type": "uint256"
        }
      ],
      "name": "Transfer",
      "type": "event"
    },
    {
      "inputs": [
        {
          "internalType": "address",
          "name": "to",
          "type": "address"
        },
        {
          "internalType": "uint256",
          "name": "tokenId",
          "type": "uint256"
        }
      ],
      "name": "approve",
      "outputs": [],
      "stateMutability": "nonpayable",
      "type": "function"
    },
    {
      "inputs": [
        {
          "internalType": "address",
          "name": "owner",
          "type": "address"
        }
      ],
      "name": "balanceOf",
      "outputs": [
        {
          "internalType": "uint256",
          "name": "",
          "type": "uint256"
        }
      ],
      "stateMutability": "view",
      "type": "function"
    },
    {
      "inputs": [
        {
          "internalType": "uint256",
          "name": "tokenId",
          "type": "uint256"
        }
      ],
      "name": "getApproved",
      "outputs": [
        {
          "internalType": "address",
          "name": "",
          "type": "address"
        }
      ],
      "stateMutability": "view",
      "type": "function"
    },
    {
      "inputs": [],
      "name": "getTotalNFTs",
      "outputs": [
        {
          "internalType": "uint256",
          "name": "",
          "type": "uint256"
        }
      ],
      "stateMutability": "view",
      "type": "function"
    },
    {
      "inputs": [
        {
          "internalType": "address",
          "name": "owner",
          "type": "address"
        },
        {
          "internalType": "address",
          "name": "operator",
          "type": "address"
        }
      ],
      "name": "isApprovedForAll",
      "outputs": [
        {
          "internalType": "bool",
          "name": "",
          "type": "bool"
        }
      ],
      "stateMutability": "view",
      "type": "function"
    },
    {
      "inputs": [],
      "name": "makeAnEpicNFT",
      "outputs": [],
      "stateMutability": "nonpayable",
      "type": "function"
    },
    {
      "inputs": [],
      "name": "name",
      "outputs": [
        {
          "internalType": "string",
          "name": "",
          "type": "string"
        }
      ],
      "stateMutability": "view",
      "type": "function"
    },
    {
      "inputs": [
        {
          "internalType": "uint256",
          "name": "tokenId",
          "type": "uint256"
        }
      ],
      "name": "ownerOf",
      "outputs": [
        {
          "internalType": "address",
          "name": "",
          "type": "address"
        }
      ],
      "stateMutability": "view",
      "type": "function"
    },
    {
      "inputs": [
        {
          "internalType": "uint256",
          "name": "tokenId",
          "type": "uint256"
        },
        {
          "internalType": "string[]",
          "name": "listOfWords",
          "type": "string[]"
        }
      ],
      "name": "pickRandom",
      "outputs": [
        {
          "internalType": "string",
          "name": "",
          "type": "string"
        }
      ],
      "stateMutability": "pure",
      "type": "function"
    },
    {
      "inputs": [
        {
          "internalType": "address",
          "name": "from",
          "type": "address"
        },
        {
          "internalType": "address",
          "name": "to",
          "type": "address"
        },
        {
          "internalType": "uint256",
          "name": "tokenId",
          "type": "uint256"
        }
      ],
      "name": "safeTransferFrom",
      "outputs": [],
      "stateMutability": "nonpayable",
      "type": "function"
    },
    {
      "inputs": [
        {
          "internalType": "address",
          "name": "from",
          "type": "address"
        },
        {
          "internalType": "address",
          "name": "to",
          "type": "address"
        },
        {
          "internalType": "uint256",
          "name": "tokenId",
          "type": "uint256"
        },
        {
          "internalType": "bytes",
          "name": "_data",
          "type": "bytes"
        }
      ],
      "name": "safeTransferFrom",
      "outputs": [],
      "stateMutability": "nonpayable",
      "type": "function"
    },
    {
      "inputs": [
        {
          "internalType": "address",
          "name": "operator",
          "type": "address"
        },
        {
          "internalType": "bool",
          "name": "approved",
          "type": "bool"
        }
      ],
      "name": "setApprovalForAll",
      "outputs": [],
      "stateMutability": "nonpayable",
      "type": "function"
    },
    {
      "inputs": [
        {
          "internalType": "bytes4",
          "name": "interfaceId",
          "type": "bytes4"
        }
      ],
      "name": "supportsInterface",
      "outputs": [
        {
          "internalType": "bool",
          "name": "",
          "type": "bool"
        }
      ],
      "stateMutability": "view",
      "type": "function"
    },
    {
      "inputs": [],
      "name": "symbol",
      "outputs": [
        {
          "internalType": "string",
          "name": "",
          "type": "string"
        }
      ],
      "stateMutability": "view",
      "type": "function"
    },
    {
      "inputs": [
        {
          "internalType": "uint256",
          "name": "tokenId",
          "type": "uint256"
        }
      ],
      "name": "tokenURI",
      "outputs": [
        {
          "internalType": "string",
          "name": "",
          "type": "string"
        }
      ],
      "stateMutability": "view",
      "type": "function"
    },
    {
      "inputs": [
        {
          "internalType": "address",
          "name": "from",
          "type": "address"
        },
        {
          "internalType": "address",
          "name": "to",
          "type": "address"
        },
        {
          "internalType": "uint256",
          "name": "tokenId",
          "type": "uint256"
        }
      ],
      "name": "transferFrom",
      "outputs": [],
      "stateMutability": "nonpayable",
      "type": "function"
    }
  ],
  "bytecode": "0x608060405260405180610160016040528061012f8152602001620044f961012f913960089080519060200190620000389291906200067e565b506040518060c001604052806040518060400160405280600881526020017f4d4f554e5441494e00000000000000000000000000000000000000000000000081525081526020016040518060400160405280600581526020017f4f4345414e00000000000000000000000000000000000000000000000000000081525081526020016040518060400160405280600481526020017f534e4f570000000000000000000000000000000000000000000000000000000081525081526020016040518060400160405280600581526020017f505249444500000000000000000000000000000000000000000000000000000081525081526020016040518060400160405280600a81526020017f50484f544f47524150480000000000000000000000000000000000000000000081525081526020016040518060400160405280600581526020017f4d555349430000000000000000000000000000000000000000000000000000008152508152506009906006620001b69291906200070f565b506040518060c001604052806040518060400160405280600581526020017f425241564500000000000000000000000000000000000000000000000000000081525081526020016040518060400160405280600b81526020017f414456454e5455524f555300000000000000000000000000000000000000000081525081526020016040518060400160405280600881526020017f4152524f47414e5400000000000000000000000000000000000000000000000081525081526020016040518060400160405280600681526020017f434c45564552000000000000000000000000000000000000000000000000000081525081526020016040518060400160405280600581526020017f46414e435900000000000000000000000000000000000000000000000000000081525081526020016040518060400160405280600581526020017f46554e4e59000000000000000000000000000000000000000000000000000000815250815250600a906006620003349291906200070f565b506040518060c001604052806040518060400160405280600681526020017f4b494e444c59000000000000000000000000000000000000000000000000000081525081526020016040518060400160405280600981526020017f4a45414c4f55534c59000000000000000000000000000000000000000000000081525081526020016040518060400160405280600681526020017f4e4541524c59000000000000000000000000000000000000000000000000000081525081526020016040518060400160405280600681526020017f525544454c59000000000000000000000000000000000000000000000000000081525081526020016040518060400160405280600681526020017f5348494c5659000000000000000000000000000000000000000000000000000081525081526020016040518060400160405280600881526020017f53554444454e4c59000000000000000000000000000000000000000000000000815250815250600b906006620004b29291906200070f565b50348015620004c057600080fd5b506040518060400160405280600981526020017f5371756172654e465400000000000000000000000000000000000000000000008152506040518060400160405280600681526020017f53515541524500000000000000000000000000000000000000000000000000008152508160009080519060200190620005459291906200067e565b5080600190805190602001906200055e9291906200067e565b505050620005ac6040518060400160405280601e81526020017f54686973206973206d79204e465420636f6e74726163742e2057686f61210000815250620005b260201b620010da1760201c565b62000930565b6200065281604051602401620005c9919062000844565b6040516020818303038152906040527f41304fac000000000000000000000000000000000000000000000000000000007bffffffffffffffffffffffffffffffffffffffffffffffffffffffff19166020820180517bffffffffffffffffffffffffffffffffffffffffffffffffffffffff83818316178352505050506200065560201b60201c565b50565b60008151905060006a636f6e736f6c652e6c6f679050602083016000808483855afa5050505050565b8280546200068c90620008ba565b90600052602060002090601f016020900481019282620006b05760008555620006fc565b82601f10620006cb57805160ff1916838001178555620006fc565b82800160010185558215620006fc579182015b82811115620006fb578251825591602001919060010190620006de565b5b5090506200070b919062000776565b5090565b82805482825590600052602060002090810192821562000763579160200282015b8281111562000762578251829080519060200190620007519291906200067e565b509160200191906001019062000730565b5b50905062000772919062000795565b5090565b5b808211156200079157600081600090555060010162000777565b5090565b5b80821115620007b95760008181620007af9190620007bd565b5060010162000796565b5090565b508054620007cb90620008ba565b6000825580601f10620007df575062000800565b601f016020900490600052602060002090810190620007ff919062000776565b5b50565b6000620008108262000868565b6200081c818562000873565b93506200082e81856020860162000884565b62000839816200091f565b840191505092915050565b6000602082019050818103600083015262000860818462000803565b905092915050565b600081519050919050565b600082825260208201905092915050565b60005b83811015620008a457808201518184015260208101905062000887565b83811115620008b4576000848401525b50505050565b60006002820490506001821680620008d357607f821691505b60208210811415620008ea57620008e9620008f0565b5b50919050565b7f4e487b7100000000000000000000000000000000000000000000000000000000600052602260045260246000fd5b6000601f19601f8301169050919050565b613bb980620009406000396000f3fe608060405234801561001057600080fd5b50600436106101005760003560e01c80636b5c6e0711610097578063b88d4fde11610066578063b88d4fde146102bf578063c87b56dd146102db578063de9d132f1461030b578063e985e9c51461031557610100565b80636b5c6e071461022557806370a082311461025557806395d89b4114610285578063a22cb465146102a357610100565b806323b872dd116100d357806323b872dd1461019f57806330bdb351146101bb57806342842e0e146101d95780636352211e146101f557610100565b806301ffc9a71461010557806306fdde0314610135578063081812fc14610153578063095ea7b314610183575b600080fd5b61011f600480360381019061011a91906125f2565b610345565b60405161012c9190612d2e565b60405180910390f35b61013d610427565b60405161014a9190612d49565b60405180910390f35b61016d60048036038101906101689190612644565b6104b9565b60405161017a9190612c9e565b60405180910390f35b61019d600480360381019061019891906125b6565b61053e565b005b6101b960048036038101906101b491906124b0565b610656565b005b6101c36106b6565b6040516101d09190612fc9565b60405180910390f35b6101f360048036038101906101ee91906124b0565b6106c7565b005b61020f600480360381019061020a9190612644565b6106e7565b60405161021c9190612c9e565b60405180910390f35b61023f600480360381019061023a919061266d565b610799565b60405161024c9190612d49565b60405180910390f35b61026f600480360381019061026a919061244b565b610828565b60405161027c9190612fc9565b60405180910390f35b61028d6108e0565b60405161029a9190612d49565b60405180910390f35b6102bd60048036038101906102b8919061257a565b610972565b005b6102d960048036038101906102d491906124ff565b610988565b005b6102f560048036038101906102f09190612644565b6109ea565b6040516103029190612d49565b60405180910390f35b610313610b3c565b005b61032f600480360381019061032a9190612474565b611046565b60405161033c9190612d2e565b60405180910390f35b60007f80ac58cd000000000000000000000000000000000000000000000000000000007bffffffffffffffffffffffffffffffffffffffffffffffffffffffff1916827bffffffffffffffffffffffffffffffffffffffffffffffffffffffff1916148061041057507f5b5e139f000000000000000000000000000000000000000000000000000000007bffffffffffffffffffffffffffffffffffffffffffffffffffffffff1916827bffffffffffffffffffffffffffffffffffffffffffffffffffffffff1916145b80610420575061041f82611173565b5b9050919050565b606060008054610436906132ba565b80601f0160208091040260200160405190810160405280929190818152602001828054610462906132ba565b80156104af5780601f10610484576101008083540402835291602001916104af565b820191906000526020600020905b81548152906001019060200180831161049257829003601f168201915b5050505050905090565b60006104c4826111dd565b610503576040517f08c379a00000000000000000000000000000000000000000000000000000000081526004016104fa90612f29565b60405180910390fd5b6004600083815260200190815260200160002060009054906101000a900473ffffffffffffffffffffffffffffffffffffffff169050919050565b6000610549826106e7565b90508073ffffffffffffffffffffffffffffffffffffffff168373ffffffffffffffffffffffffffffffffffffffff1614156105ba576040517f08c379a00000000000000000000000000000000000000000000000000000000081526004016105b190612f89565b60405180910390fd5b8073ffffffffffffffffffffffffffffffffffffffff166105d9611249565b73ffffffffffffffffffffffffffffffffffffffff161480610608575061060781610602611249565b611046565b5b610647576040517f08c379a000000000000000000000000000000000000000000000000000000000815260040161063e90612e69565b60405180910390fd5b6106518383611251565b505050565b610667610661611249565b8261130a565b6106a6576040517f08c379a000000000000000000000000000000000000000000000000000000000815260040161069d90612fa9565b60405180910390fd5b6106b18383836113e8565b505050565b60006106c26007611644565b905090565b6106e283838360405180602001604052806000815250610988565b505050565b6000806002600084815260200190815260200160002060009054906101000a900473ffffffffffffffffffffffffffffffffffffffff169050600073ffffffffffffffffffffffffffffffffffffffff168173ffffffffffffffffffffffffffffffffffffffff161415610790576040517f08c379a000000000000000000000000000000000000000000000000000000000815260040161078790612ea9565b60405180910390fd5b80915050919050565b606060006107cd6107a985611652565b6040516020016107b99190612c15565b6040516020818303038152906040526117ff565b90508251816107dc9190613366565b9050828181518110610817577f4e487b7100000000000000000000000000000000000000000000000000000000600052603260045260246000fd5b602002602001015191505092915050565b60008073ffffffffffffffffffffffffffffffffffffffff168273ffffffffffffffffffffffffffffffffffffffff161415610899576040517f08c379a000000000000000000000000000000000000000000000000000000000815260040161089090612e89565b60405180910390fd5b600360008373ffffffffffffffffffffffffffffffffffffffff1673ffffffffffffffffffffffffffffffffffffffff168152602001908152602001600020549050919050565b6060600180546108ef906132ba565b80601f016020809104026020016040519081016040528092919081815260200182805461091b906132ba565b80156109685780601f1061093d57610100808354040283529160200191610968565b820191906000526020600020905b81548152906001019060200180831161094b57829003601f168201915b5050505050905090565b61098461097d611249565b8383611832565b5050565b610999610993611249565b8361130a565b6109d8576040517f08c379a00000000000000000000000000000000000000000000000000000000081526004016109cf90612fa9565b60405180910390fd5b6109e48484848461199f565b50505050565b60606109f5826111dd565b610a34576040517f08c379a0000000000000000000000000000000000000000000000000000000008152600401610a2b90612f09565b60405180910390fd5b6000600660008481526020019081526020016000208054610a54906132ba565b80601f0160208091040260200160405190810160405280929190818152602001828054610a80906132ba565b8015610acd5780601f10610aa257610100808354040283529160200191610acd565b820191906000526020600020905b815481529060010190602001808311610ab057829003601f168201915b505050505090506000610ade6119fb565b9050600081511415610af4578192505050610b37565b600082511115610b29578082604051602001610b11929190612b6f565b60405160208183030381529060405292505050610b37565b610b3284611a12565b925050505b919050565b6000610b486007611644565b90506019600182610b5991906130ef565b1115610b9a576040517f08c379a0000000000000000000000000000000000000000000000000000000008152600401610b9190612e49565b60405180910390fd5b610bd86040518060400160405280601581526020017f0a2d2d2d2d2d2d2d2d2d2d2d2d2d2d2d2d2d2d2d2d00000000000000000000008152506110da565b6000610cb5826009805480602002602001604051908101604052809291908181526020016000905b82821015610cac578382906000526020600020018054610c1f906132ba565b80601f0160208091040260200160405190810160405280929190818152602001828054610c4b906132ba565b8015610c985780601f10610c6d57610100808354040283529160200191610c98565b820191906000526020600020905b815481529060010190602001808311610c7b57829003601f168201915b505050505081526020019060010190610c00565b50505050610799565b90506000610d9483600a805480602002602001604051908101604052809291908181526020016000905b82821015610d8b578382906000526020600020018054610cfe906132ba565b80601f0160208091040260200160405190810160405280929190818152602001828054610d2a906132ba565b8015610d775780601f10610d4c57610100808354040283529160200191610d77565b820191906000526020600020905b815481529060010190602001808311610d5a57829003601f168201915b505050505081526020019060010190610cdf565b50505050610799565b90506000610e7384600b805480602002602001604051908101604052809291908181526020016000905b82821015610e6a578382906000526020600020018054610ddd906132ba565b80601f0160208091040260200160405190810160405280929190818152602001828054610e09906132ba565b8015610e565780601f10610e2b57610100808354040283529160200191610e56565b820191906000526020600020905b815481529060010190602001808311610e3957829003601f168201915b505050505081526020019060010190610dbe565b50505050610799565b90506000838383604051602001610e8c93929190612b93565b60405160208183030381529060405290506000600882604051602001610eb3929190612bc4565b60405160208183030381529060405290506000610ef883610ed384611ab9565b604051602001610ee4929190612c37565b604051602081830303815290604052611ab9565b9050600081604051602001610f0d9190612c7c565b6040516020818303038152906040529050610f5c6040518060400160405280601581526020017f0a2d2d2d2d2d2d2d2d2d2d2d2d2d2d2d2d2d2d2d2d00000000000000000000008152506110da565b610f8481604051602001610f709190612bf3565b6040516020818303038152906040526110da565b610fc26040518060400160405280601581526020017f2d2d2d2d2d2d2d2d2d2d2d2d2d2d2d2d2d2d2d2d0a00000000000000000000008152506110da565b610fcc3389611c77565b610fd68882611c95565b610fe06007611d09565b611003604051806060016040528060258152602001613b1f602591398933611d1f565b7febb98688741ffa4c7589bf325de30cf7becb63de567842e1ccdb6cb949fdc82c3389604051611034929190612d05565b60405180910390a15050505050505050565b6000600560008473ffffffffffffffffffffffffffffffffffffffff1673ffffffffffffffffffffffffffffffffffffffff16815260200190815260200160002060008373ffffffffffffffffffffffffffffffffffffffff1673ffffffffffffffffffffffffffffffffffffffff16815260200190815260200160002060009054906101000a900460ff16905092915050565b611170816040516024016110ee9190612d49565b6040516020818303038152906040527f41304fac000000000000000000000000000000000000000000000000000000007bffffffffffffffffffffffffffffffffffffffffffffffffffffffff19166020820180517bffffffffffffffffffffffffffffffffffffffffffffffffffffffff8381831617835250505050611dbe565b50565b60007f01ffc9a7000000000000000000000000000000000000000000000000000000007bffffffffffffffffffffffffffffffffffffffffffffffffffffffff1916827bffffffffffffffffffffffffffffffffffffffffffffffffffffffff1916149050919050565b60008073ffffffffffffffffffffffffffffffffffffffff166002600084815260200190815260200160002060009054906101000a900473ffffffffffffffffffffffffffffffffffffffff1673ffffffffffffffffffffffffffffffffffffffff1614159050919050565b600033905090565b816004600083815260200190815260200160002060006101000a81548173ffffffffffffffffffffffffffffffffffffffff021916908373ffffffffffffffffffffffffffffffffffffffff160217905550808273ffffffffffffffffffffffffffffffffffffffff166112c4836106e7565b73ffffffffffffffffffffffffffffffffffffffff167f8c5be1e5ebec7d5bd14f71427d1e84f3dd0314c0f7b2291e5b200ac8c7c3b92560405160405180910390a45050565b6000611315826111dd565b611354576040517f08c379a000000000000000000000000000000000000000000000000000000000815260040161134b90612e29565b60405180910390fd5b600061135f836106e7565b90508073ffffffffffffffffffffffffffffffffffffffff168473ffffffffffffffffffffffffffffffffffffffff1614806113ce57508373ffffffffffffffffffffffffffffffffffffffff166113b6846104b9565b73ffffffffffffffffffffffffffffffffffffffff16145b806113df57506113de8185611046565b5b91505092915050565b8273ffffffffffffffffffffffffffffffffffffffff16611408826106e7565b73ffffffffffffffffffffffffffffffffffffffff161461145e576040517f08c379a000000000000000000000000000000000000000000000000000000000815260040161145590612f49565b60405180910390fd5b600073ffffffffffffffffffffffffffffffffffffffff168273ffffffffffffffffffffffffffffffffffffffff1614156114ce576040517f08c379a00000000000000000000000000000000000000000000000000000000081526004016114c590612de9565b60405180910390fd5b6114d9838383611de7565b6114e4600082611251565b6001600360008573ffffffffffffffffffffffffffffffffffffffff1673ffffffffffffffffffffffffffffffffffffffff168152602001908152602001600020600082825461153491906131d0565b925050819055506001600360008473ffffffffffffffffffffffffffffffffffffffff1673ffffffffffffffffffffffffffffffffffffffff168152602001908152602001600020600082825461158b91906130ef565b92505081905550816002600083815260200190815260200160002060006101000a81548173ffffffffffffffffffffffffffffffffffffffff021916908373ffffffffffffffffffffffffffffffffffffffff160217905550808273ffffffffffffffffffffffffffffffffffffffff168473ffffffffffffffffffffffffffffffffffffffff167fddf252ad1be2c89b69c2b068fc378daa952ba7f163c4a11628f55a4df523b3ef60405160405180910390a4505050565b600081600001549050919050565b6060600082141561169a576040518060400160405280600181526020017f300000000000000000000000000000000000000000000000000000000000000081525090506117fa565b600082905060005b600082146116cc5780806116b59061331d565b915050600a826116c59190613145565b91506116a2565b60008167ffffffffffffffff81111561170e577f4e487b7100000000000000000000000000000000000000000000000000000000600052604160045260246000fd5b6040519080825280601f01601f1916602001820160405280156117405781602001600182028036833780820191505090505b5090505b600085146117f35760018261175991906131d0565b9150600a856117689190613366565b603061177491906130ef565b60f81b8183815181106117b0577f4e487b7100000000000000000000000000000000000000000000000000000000600052603260045260246000fd5b60200101907effffffffffffffffffffffffffffffffffffffffffffffffffffffffffffff1916908160001a905350600a856117ec9190613145565b9450611744565b8093505050505b919050565b6000816040516020016118129190612b58565b6040516020818303038152906040528051906020012060001c9050919050565b8173ffffffffffffffffffffffffffffffffffffffff168373ffffffffffffffffffffffffffffffffffffffff1614156118a1576040517f08c379a000000000000000000000000000000000000000000000000000000000815260040161189890612e09565b60405180910390fd5b80600560008573ffffffffffffffffffffffffffffffffffffffff1673ffffffffffffffffffffffffffffffffffffffff16815260200190815260200160002060008473ffffffffffffffffffffffffffffffffffffffff1673ffffffffffffffffffffffffffffffffffffffff16815260200190815260200160002060006101000a81548160ff0219169083151502179055508173ffffffffffffffffffffffffffffffffffffffff168373ffffffffffffffffffffffffffffffffffffffff167f17307eab39ab6107e8899845ad3d59bd9653f200f220920489ca2b5937696c31836040516119929190612d2e565b60405180910390a3505050565b6119aa8484846113e8565b6119b684848484611dec565b6119f5576040517f08c379a00000000000000000000000000000000000000000000000000000000081526004016119ec90612da9565b60405180910390fd5b50505050565b606060405180602001604052806000815250905090565b6060611a1d826111dd565b611a5c576040517f08c379a0000000000000000000000000000000000000000000000000000000008152600401611a5390612f69565b60405180910390fd5b6000611a666119fb565b90506000815111611a865760405180602001604052806000815250611ab1565b80611a9084611652565b604051602001611aa1929190612b6f565b6040516020818303038152906040525b915050919050565b60606000825190506000811415611ae25760405180602001604052806000815250915050611c72565b60006003600283611af391906130ef565b611afd9190613145565b6004611b099190613176565b90506000602082611b1a91906130ef565b67ffffffffffffffff811115611b59577f4e487b7100000000000000000000000000000000000000000000000000000000600052604160045260246000fd5b6040519080825280601f01601f191660200182016040528015611b8b5781602001600182028036833780820191505090505b5090506000604051806060016040528060408152602001613b44604091399050600181016020830160005b86811015611c2f5760038101905062ffffff818a015116603f8160121c168401518060081b905060ff603f83600c1c1686015116810190508060081b905060ff603f8360061c1686015116810190508060081b905060ff603f831686015116810190508060e01b90508084526004840193505050611bb6565b506003860660018114611c495760028114611c5957611c64565b613d3d60f01b6002830352611c64565b603d60f81b60018303525b508484525050819450505050505b919050565b611c91828260405180602001604052806000815250611f83565b5050565b611c9e826111dd565b611cdd576040517f08c379a0000000000000000000000000000000000000000000000000000000008152600401611cd490612ec9565b60405180910390fd5b80600660008481526020019081526020016000209080519060200190611d049291906121bf565b505050565b6001816000016000828254019250508190555050565b611db9838383604051602401611d3793929190612d6b565b6040516020818303038152906040527fe3849f79000000000000000000000000000000000000000000000000000000007bffffffffffffffffffffffffffffffffffffffffffffffffffffffff19166020820180517bffffffffffffffffffffffffffffffffffffffffffffffffffffffff8381831617835250505050611dbe565b505050565b60008151905060006a636f6e736f6c652e6c6f679050602083016000808483855afa5050505050565b505050565b6000611e0d8473ffffffffffffffffffffffffffffffffffffffff16611fde565b15611f76578373ffffffffffffffffffffffffffffffffffffffff1663150b7a02611e36611249565b8786866040518563ffffffff1660e01b8152600401611e589493929190612cb9565b602060405180830381600087803b158015611e7257600080fd5b505af1925050508015611ea357506040513d601f19601f82011682018060405250810190611ea0919061261b565b60015b611f26573d8060008114611ed3576040519150601f19603f3d011682016040523d82523d6000602084013e611ed8565b606091505b50600081511415611f1e576040517f08c379a0000000000000000000000000000000000000000000000000000000008152600401611f1590612da9565b60405180910390fd5b805181602001fd5b63150b7a0260e01b7bffffffffffffffffffffffffffffffffffffffffffffffffffffffff1916817bffffffffffffffffffffffffffffffffffffffffffffffffffffffff191614915050611f7b565b600190505b949350505050565b611f8d8383611ff1565b611f9a6000848484611dec565b611fd9576040517f08c379a0000000000000000000000000000000000000000000000000000000008152600401611fd090612da9565b60405180910390fd5b505050565b600080823b905060008111915050919050565b600073ffffffffffffffffffffffffffffffffffffffff168273ffffffffffffffffffffffffffffffffffffffff161415612061576040517f08c379a000000000000000000000000000000000000000000000000000000000815260040161205890612ee9565b60405180910390fd5b61206a816111dd565b156120aa576040517f08c379a00000000000000000000000000000000000000000000000000000000081526004016120a190612dc9565b60405180910390fd5b6120b660008383611de7565b6001600360008473ffffffffffffffffffffffffffffffffffffffff1673ffffffffffffffffffffffffffffffffffffffff168152602001908152602001600020600082825461210691906130ef565b92505081905550816002600083815260200190815260200160002060006101000a81548173ffffffffffffffffffffffffffffffffffffffff021916908373ffffffffffffffffffffffffffffffffffffffff160217905550808273ffffffffffffffffffffffffffffffffffffffff16600073ffffffffffffffffffffffffffffffffffffffff167fddf252ad1be2c89b69c2b068fc378daa952ba7f163c4a11628f55a4df523b3ef60405160405180910390a45050565b8280546121cb906132ba565b90600052602060002090601f0160209004810192826121ed5760008555612234565b82601f1061220657805160ff1916838001178555612234565b82800160010185558215612234579182015b82811115612233578251825591602001919060010190612218565b5b5090506122419190612245565b5090565b5b8082111561225e576000816000905550600101612246565b5090565b600061227561227084613009565b612fe4565b9050808382526020820190508285602086028201111561229457600080fd5b60005b858110156122de57813567ffffffffffffffff8111156122b657600080fd5b8086016122c3898261240c565b85526020850194506020840193505050600181019050612297565b5050509392505050565b60006122fb6122f684613035565b612fe4565b90508281526020810184848401111561231357600080fd5b61231e848285613278565b509392505050565b600061233961233484613066565b612fe4565b90508281526020810184848401111561235157600080fd5b61235c848285613278565b509392505050565b60008135905061237381613ac2565b92915050565b600082601f83011261238a57600080fd5b813561239a848260208601612262565b91505092915050565b6000813590506123b281613ad9565b92915050565b6000813590506123c781613af0565b92915050565b6000815190506123dc81613af0565b92915050565b600082601f8301126123f357600080fd5b81356124038482602086016122e8565b91505092915050565b600082601f83011261241d57600080fd5b813561242d848260208601612326565b91505092915050565b60008135905061244581613b07565b92915050565b60006020828403121561245d57600080fd5b600061246b84828501612364565b91505092915050565b6000806040838503121561248757600080fd5b600061249585828601612364565b92505060206124a685828601612364565b9150509250929050565b6000806000606084860312156124c557600080fd5b60006124d386828701612364565b93505060206124e486828701612364565b92505060406124f586828701612436565b9150509250925092565b6000806000806080858703121561251557600080fd5b600061252387828801612364565b945050602061253487828801612364565b935050604061254587828801612436565b925050606085013567ffffffffffffffff81111561256257600080fd5b61256e878288016123e2565b91505092959194509250565b6000806040838503121561258d57600080fd5b600061259b85828601612364565b92505060206125ac858286016123a3565b9150509250929050565b600080604083850312156125c957600080fd5b60006125d785828601612364565b92505060206125e885828601612436565b9150509250929050565b60006020828403121561260457600080fd5b6000612612848285016123b8565b91505092915050565b60006020828403121561262d57600080fd5b600061263b848285016123cd565b91505092915050565b60006020828403121561265657600080fd5b600061266484828501612436565b91505092915050565b6000806040838503121561268057600080fd5b600061268e85828601612436565b925050602083013567ffffffffffffffff8111156126ab57600080fd5b6126b785828601612379565b9150509250929050565b6126ca81613204565b82525050565b6126d981613216565b82525050565b60006126ea826130ac565b6126f481856130c2565b9350612704818560208601613287565b61270d81613453565b840191505092915050565b6000612723826130b7565b61272d81856130d3565b935061273d818560208601613287565b61274681613453565b840191505092915050565b600061275c826130b7565b61276681856130e4565b9350612776818560208601613287565b80840191505092915050565b6000815461278f816132ba565b61279981866130e4565b945060018216600081146127b457600181146127c5576127f8565b60ff198316865281860193506127f8565b6127ce85613097565b60005b838110156127f0578154818901526001820191506020810190506127d1565b838801955050505b50505092915050565b600061280e6025836130e4565b915061281982613464565b602582019050919050565b60006128316032836130d3565b915061283c826134b3565b604082019050919050565b6000612854601c836130d3565b915061285f82613502565b602082019050919050565b60006128776024836130d3565b91506128828261352b565b604082019050919050565b600061289a6019836130d3565b91506128a58261357a565b602082019050919050565b60006128bd600c836130e4565b91506128c8826135a3565b600c82019050919050565b60006128e0602c836130d3565b91506128eb826135cc565b604082019050919050565b6000612903600d836130e4565b915061290e8261361b565b600d82019050919050565b6000612926601e836130d3565b915061293182613644565b602082019050919050565b60006129496038836130d3565b91506129548261366d565b604082019050919050565b600061296c602a836130d3565b9150612977826136bc565b604082019050919050565b600061298f6029836130d3565b915061299a8261370b565b604082019050919050565b60006129b2602e836130d3565b91506129bd8261375a565b604082019050919050565b60006129d56002836130e4565b91506129e0826137a9565b600282019050919050565b60006129f86020836130d3565b9150612a03826137d2565b602082019050919050565b6000612a1b6031836130d3565b9150612a26826137fb565b604082019050919050565b6000612a3e602c836130d3565b9150612a498261384a565b604082019050919050565b6000612a616029836130d3565b9150612a6c82613899565b604082019050919050565b6000612a846061836130e4565b9150612a8f826138e8565b606182019050919050565b6000612aa7602f836130d3565b9150612ab282613983565b604082019050919050565b6000612aca600a836130e4565b9150612ad5826139d2565b600a82019050919050565b6000612aed6021836130d3565b9150612af8826139fb565b604082019050919050565b6000612b10601d836130e4565b9150612b1b82613a4a565b601d82019050919050565b6000612b336031836130d3565b9150612b3e82613a73565b604082019050919050565b612b528161326e565b82525050565b6000612b648284612751565b915081905092915050565b6000612b7b8285612751565b9150612b878284612751565b91508190509392505050565b6000612b9f8286612751565b9150612bab8285612751565b9150612bb78284612751565b9150819050949350505050565b6000612bd08285612782565b9150612bdc8284612751565b9150612be7826128f6565b91508190509392505050565b6000612bfe82612801565b9150612c0a8284612751565b915081905092915050565b6000612c20826128b0565b9150612c2c8284612751565b915081905092915050565b6000612c4282612abd565b9150612c4e8285612751565b9150612c5982612a77565b9150612c658284612751565b9150612c70826129c8565b91508190509392505050565b6000612c8782612b03565b9150612c938284612751565b915081905092915050565b6000602082019050612cb360008301846126c1565b92915050565b6000608082019050612cce60008301876126c1565b612cdb60208301866126c1565b612ce86040830185612b49565b8181036060830152612cfa81846126df565b905095945050505050565b6000604082019050612d1a60008301856126c1565b612d276020830184612b49565b9392505050565b6000602082019050612d4360008301846126d0565b92915050565b60006020820190508181036000830152612d638184612718565b905092915050565b60006060820190508181036000830152612d858186612718565b9050612d946020830185612b49565b612da160408301846126c1565b949350505050565b60006020820190508181036000830152612dc281612824565b9050919050565b60006020820190508181036000830152612de281612847565b9050919050565b60006020820190508181036000830152612e028161286a565b9050919050565b60006020820190508181036000830152612e228161288d565b9050919050565b60006020820190508181036000830152612e42816128d3565b9050919050565b60006020820190508181036000830152612e6281612919565b9050919050565b60006020820190508181036000830152612e828161293c565b9050919050565b60006020820190508181036000830152612ea28161295f565b9050919050565b60006020820190508181036000830152612ec281612982565b9050919050565b60006020820190508181036000830152612ee2816129a5565b9050919050565b60006020820190508181036000830152612f02816129eb565b9050919050565b60006020820190508181036000830152612f2281612a0e565b9050919050565b60006020820190508181036000830152612f4281612a31565b9050919050565b60006020820190508181036000830152612f6281612a54565b9050919050565b60006020820190508181036000830152612f8281612a9a565b9050919050565b60006020820190508181036000830152612fa281612ae0565b9050919050565b60006020820190508181036000830152612fc281612b26565b9050919050565b6000602082019050612fde6000830184612b49565b92915050565b6000612fee612fff565b9050612ffa82826132ec565b919050565b6000604051905090565b600067ffffffffffffffff82111561302457613023613424565b5b602082029050602081019050919050565b600067ffffffffffffffff8211156130505761304f613424565b5b61305982613453565b9050602081019050919050565b600067ffffffffffffffff82111561308157613080613424565b5b61308a82613453565b9050602081019050919050565b60008190508160005260206000209050919050565b600081519050919050565b600081519050919050565b600082825260208201905092915050565b600082825260208201905092915050565b600081905092915050565b60006130fa8261326e565b91506131058361326e565b9250827fffffffffffffffffffffffffffffffffffffffffffffffffffffffffffffffff0382111561313a57613139613397565b5b828201905092915050565b60006131508261326e565b915061315b8361326e565b92508261316b5761316a6133c6565b5b828204905092915050565b60006131818261326e565b915061318c8361326e565b9250817fffffffffffffffffffffffffffffffffffffffffffffffffffffffffffffffff04831182151516156131c5576131c4613397565b5b828202905092915050565b60006131db8261326e565b91506131e68361326e565b9250828210156131f9576131f8613397565b5b828203905092915050565b600061320f8261324e565b9050919050565b60008115159050919050565b60007fffffffff0000000000000000000000000000000000000000000000000000000082169050919050565b600073ffffffffffffffffffffffffffffffffffffffff82169050919050565b6000819050919050565b82818337600083830152505050565b60005b838110156132a557808201518184015260208101905061328a565b838111156132b4576000848401525b50505050565b600060028204905060018216806132d257607f821691505b602082108114156132e6576132e56133f5565b5b50919050565b6132f582613453565b810181811067ffffffffffffffff8211171561331457613313613424565b5b80604052505050565b60006133288261326e565b91507fffffffffffffffffffffffffffffffffffffffffffffffffffffffffffffffff82141561335b5761335a613397565b5b600182019050919050565b60006133718261326e565b915061337c8361326e565b92508261338c5761338b6133c6565b5b828206905092915050565b7f4e487b7100000000000000000000000000000000000000000000000000000000600052601160045260246000fd5b7f4e487b7100000000000000000000000000000000000000000000000000000000600052601260045260246000fd5b7f4e487b7100000000000000000000000000000000000000000000000000000000600052602260045260246000fd5b7f4e487b7100000000000000000000000000000000000000000000000000000000600052604160045260246000fd5b6000601f19601f8301169050919050565b7f68747470733a2f2f6e6674707265766965772e30786465762e636f6465732f3f60008201527f636f64653d000000000000000000000000000000000000000000000000000000602082015250565b7f4552433732313a207472616e7366657220746f206e6f6e20455243373231526560008201527f63656976657220696d706c656d656e7465720000000000000000000000000000602082015250565b7f4552433732313a20746f6b656e20616c7265616479206d696e74656400000000600082015250565b7f4552433732313a207472616e7366657220746f20746865207a65726f2061646460008201527f7265737300000000000000000000000000000000000000000000000000000000602082015250565b7f4552433732313a20617070726f766520746f2063616c6c657200000000000000600082015250565b7f4d4958494e475f574f5244530000000000000000000000000000000000000000600082015250565b7f4552433732313a206f70657261746f7220717565727920666f72206e6f6e657860008201527f697374656e7420746f6b656e0000000000000000000000000000000000000000602082015250565b7f3c2f746578743e3c2f7376673e00000000000000000000000000000000000000600082015250565b7f43616e206e6f74206d696e74206d6f7265207468616e203235204e4654730000600082015250565b7f4552433732313a20617070726f76652063616c6c6572206973206e6f74206f7760008201527f6e6572206e6f7220617070726f76656420666f7220616c6c0000000000000000602082015250565b7f4552433732313a2062616c616e636520717565727920666f7220746865207a6560008201527f726f206164647265737300000000000000000000000000000000000000000000602082015250565b7f4552433732313a206f776e657220717565727920666f72206e6f6e657869737460008201527f656e7420746f6b656e0000000000000000000000000000000000000000000000602082015250565b7f45524337323155524953746f726167653a2055524920736574206f66206e6f6e60008201527f6578697374656e7420746f6b656e000000000000000000000000000000000000602082015250565b7f227d000000000000000000000000000000000000000000000000000000000000600082015250565b7f4552433732313a206d696e7420746f20746865207a65726f2061646472657373600082015250565b7f45524337323155524953746f726167653a2055524920717565727920666f722060008201527f6e6f6e6578697374656e7420746f6b656e000000000000000000000000000000602082015250565b7f4552433732313a20617070726f76656420717565727920666f72206e6f6e657860008201527f697374656e7420746f6b656e0000000000000000000000000000000000000000602082015250565b7f4552433732313a207472616e73666572206f6620746f6b656e2074686174206960008201527f73206e6f74206f776e0000000000000000000000000000000000000000000000602082015250565b7f222c20226465736372697074696f6e223a20224120686967686c79206163636c60008201527f61696d656420636f6c6c656374696f6e206f6620776f7264732e222c2022696d60208201527f616765223a2022646174613a696d6167652f7376672b786d6c3b62617365363460408201527f2c00000000000000000000000000000000000000000000000000000000000000606082015250565b7f4552433732314d657461646174613a2055524920717565727920666f72206e6f60008201527f6e6578697374656e7420746f6b656e0000000000000000000000000000000000602082015250565b7f7b226e616d65223a202200000000000000000000000000000000000000000000600082015250565b7f4552433732313a20617070726f76616c20746f2063757272656e74206f776e6560008201527f7200000000000000000000000000000000000000000000000000000000000000602082015250565b7f646174613a6170706c69636174696f6e2f6a736f6e3b6261736536342c000000600082015250565b7f4552433732313a207472616e736665722063616c6c6572206973206e6f74206f60008201527f776e6572206e6f7220617070726f766564000000000000000000000000000000602082015250565b613acb81613204565b8114613ad657600080fd5b50565b613ae281613216565b8114613aed57600080fd5b50565b613af981613222565b8114613b0457600080fd5b50565b613b108161326e565b8114613b1b57600080fd5b5056fe416e204e465420772f20494420257320686173206265656e206d696e74656420746f2025734142434445464748494a4b4c4d4e4f505152535455565758595a6162636465666768696a6b6c6d6e6f707172737475767778797a303132333435363738392b2fa2646970667358221220993c0f9842ca8effdb6e4bf5cb73d9dfcabfb528a3f3a73ef5a6ec3fade9f81064736f6c634300080400333c73766720786d6c6e733d27687474703a2f2f7777772e77332e6f72672f323030302f73766727207072657365727665417370656374526174696f3d27784d696e594d696e206d656574272076696577426f783d273020302033353020333530273e3c7374796c653e2e62617365207b2066696c6c3a2077686974653b20666f6e742d66616d696c793a2073657269663b20666f6e742d73697a653a20323470783b207d3c2f7374796c653e3c726563742077696474683d273130302527206865696768743d2731303025272066696c6c3d27626c61636b27202f3e3c7465787420783d273530252720793d273530252720636c6173733d27626173652720646f6d696e616e742d626173656c696e653d276d6964646c652720746578742d616e63686f723d276d6964646c65273e",
  "linkReferences": {},
  "deployedLinkReferences": {}
}