{
  "_format": "hh-sol-artifact-1",
  "contractName": "MyEpicNFT",
  "sourceName": "contracts/MyEpicNFT.sol",
  "abi": [
    {
      "inputs": [],
      "stateMutability": "nonpayable",
      "type": "constructor"
    },
    {
      "anonymous": false,
      "inputs": [
        {
          "indexed": true,
          "internalType": "address",
          "name": "owner",
          "type": "address"
        },
        {
          "indexed": true,
          "internalType": "address",
          "name": "approved",
          "type": "address"
        },
        {
          "indexed": true,
          "internalType": "uint256",
          "name": "tokenId",
          "type": "uint256"
        }
      ],
      "name": "Approval",
      "type": "event"
    },
    {
      "anonymous": false,
      "inputs": [
        {
          "indexed": true,
          "internalType": "address",
          "name": "owner",
          "type": "address"
        },
        {
          "indexed": true,
          "internalType": "address",
          "name": "operator",
          "type": "address"
        },
        {
          "indexed": false,
          "internalType": "bool",
          "name": "approved",
          "type": "bool"
        }
      ],
      "name": "ApprovalForAll",
      "type": "event"
    },
    {
      "anonymous": false,
      "inputs": [
        {
          "indexed": false,
          "internalType": "address",
          "name": "sender",
          "type": "address"
        },
        {
          "indexed": false,
          "internalType": "uint256",
          "name": "tokenId",
          "type": "uint256"
        }
      ],
      "name": "NewEpicNFTMinted",
      "type": "event"
    },
    {
      "anonymous": false,
      "inputs": [
        {
          "indexed": true,
          "internalType": "address",
          "name": "from",
          "type": "address"
        },
        {
          "indexed": true,
          "internalType": "address",
          "name": "to",
          "type": "address"
        },
        {
          "indexed": true,
          "internalType": "uint256",
          "name": "tokenId",
          "type": "uint256"
        }
      ],
      "name": "Transfer",
      "type": "event"
    },
    {
      "inputs": [
        {
          "internalType": "address",
          "name": "to",
          "type": "address"
        },
        {
          "internalType": "uint256",
          "name": "tokenId",
          "type": "uint256"
        }
      ],
      "name": "approve",
      "outputs": [],
      "stateMutability": "nonpayable",
      "type": "function"
    },
    {
      "inputs": [
        {
          "internalType": "address",
          "name": "owner",
          "type": "address"
        }
      ],
      "name": "balanceOf",
      "outputs": [
        {
          "internalType": "uint256",
          "name": "",
          "type": "uint256"
        }
      ],
      "stateMutability": "view",
      "type": "function"
    },
    {
      "inputs": [
        {
          "internalType": "uint256",
          "name": "tokenId",
          "type": "uint256"
        }
      ],
      "name": "getApproved",
      "outputs": [
        {
          "internalType": "address",
          "name": "",
          "type": "address"
        }
      ],
      "stateMutability": "view",
      "type": "function"
    },
    {
      "inputs": [
        {
          "internalType": "address",
          "name": "owner",
          "type": "address"
        },
        {
          "internalType": "address",
          "name": "operator",
          "type": "address"
        }
      ],
      "name": "isApprovedForAll",
      "outputs": [
        {
          "internalType": "bool",
          "name": "",
          "type": "bool"
        }
      ],
      "stateMutability": "view",
      "type": "function"
    },
    {
      "inputs": [],
      "name": "makeAnEpicNFT",
      "outputs": [],
      "stateMutability": "nonpayable",
      "type": "function"
    },
    {
      "inputs": [],
      "name": "name",
      "outputs": [
        {
          "internalType": "string",
          "name": "",
          "type": "string"
        }
      ],
      "stateMutability": "view",
      "type": "function"
    },
    {
      "inputs": [
        {
          "internalType": "uint256",
          "name": "tokenId",
          "type": "uint256"
        }
      ],
      "name": "ownerOf",
      "outputs": [
        {
          "internalType": "address",
          "name": "",
          "type": "address"
        }
      ],
      "stateMutability": "view",
      "type": "function"
    },
    {
      "inputs": [
        {
          "internalType": "uint256",
          "name": "tokenId",
          "type": "uint256"
        },
        {
          "internalType": "string[]",
          "name": "listOfWords",
          "type": "string[]"
        }
      ],
      "name": "pickRandom",
      "outputs": [
        {
          "internalType": "string",
          "name": "",
          "type": "string"
        }
      ],
      "stateMutability": "pure",
      "type": "function"
    },
    {
      "inputs": [
        {
          "internalType": "address",
          "name": "from",
          "type": "address"
        },
        {
          "internalType": "address",
          "name": "to",
          "type": "address"
        },
        {
          "internalType": "uint256",
          "name": "tokenId",
          "type": "uint256"
        }
      ],
      "name": "safeTransferFrom",
      "outputs": [],
      "stateMutability": "nonpayable",
      "type": "function"
    },
    {
      "inputs": [
        {
          "internalType": "address",
          "name": "from",
          "type": "address"
        },
        {
          "internalType": "address",
          "name": "to",
          "type": "address"
        },
        {
          "internalType": "uint256",
          "name": "tokenId",
          "type": "uint256"
        },
        {
          "internalType": "bytes",
          "name": "_data",
          "type": "bytes"
        }
      ],
      "name": "safeTransferFrom",
      "outputs": [],
      "stateMutability": "nonpayable",
      "type": "function"
    },
    {
      "inputs": [
        {
          "internalType": "address",
          "name": "operator",
          "type": "address"
        },
        {
          "internalType": "bool",
          "name": "approved",
          "type": "bool"
        }
      ],
      "name": "setApprovalForAll",
      "outputs": [],
      "stateMutability": "nonpayable",
      "type": "function"
    },
    {
      "inputs": [
        {
          "internalType": "bytes4",
          "name": "interfaceId",
          "type": "bytes4"
        }
      ],
      "name": "supportsInterface",
      "outputs": [
        {
          "internalType": "bool",
          "name": "",
          "type": "bool"
        }
      ],
      "stateMutability": "view",
      "type": "function"
    },
    {
      "inputs": [],
      "name": "symbol",
      "outputs": [
        {
          "internalType": "string",
          "name": "",
          "type": "string"
        }
      ],
      "stateMutability": "view",
      "type": "function"
    },
    {
      "inputs": [
        {
          "internalType": "uint256",
          "name": "tokenId",
          "type": "uint256"
        }
      ],
      "name": "tokenURI",
      "outputs": [
        {
          "internalType": "string",
          "name": "",
          "type": "string"
        }
      ],
      "stateMutability": "view",
      "type": "function"
    },
    {
      "inputs": [
        {
          "internalType": "address",
          "name": "from",
          "type": "address"
        },
        {
          "internalType": "address",
          "name": "to",
          "type": "address"
        },
        {
          "internalType": "uint256",
          "name": "tokenId",
          "type": "uint256"
        }
      ],
      "name": "transferFrom",
      "outputs": [],
      "stateMutability": "nonpayable",
      "type": "function"
    }
  ],
  "bytecode": "0x608060405260405180610160016040528061012f81526020016200440361012f913960089080519060200190620000389291906200067e565b506040518060c001604052806040518060400160405280600881526020017f4d4f554e5441494e00000000000000000000000000000000000000000000000081525081526020016040518060400160405280600581526020017f4f4345414e00000000000000000000000000000000000000000000000000000081525081526020016040518060400160405280600481526020017f534e4f570000000000000000000000000000000000000000000000000000000081525081526020016040518060400160405280600581526020017f505249444500000000000000000000000000000000000000000000000000000081525081526020016040518060400160405280600a81526020017f50484f544f47524150480000000000000000000000000000000000000000000081525081526020016040518060400160405280600581526020017f4d555349430000000000000000000000000000000000000000000000000000008152508152506009906006620001b69291906200070f565b506040518060c001604052806040518060400160405280600581526020017f425241564500000000000000000000000000000000000000000000000000000081525081526020016040518060400160405280600b81526020017f414456454e5455524f555300000000000000000000000000000000000000000081525081526020016040518060400160405280600881526020017f4152524f47414e5400000000000000000000000000000000000000000000000081525081526020016040518060400160405280600681526020017f434c45564552000000000000000000000000000000000000000000000000000081525081526020016040518060400160405280600581526020017f46414e435900000000000000000000000000000000000000000000000000000081525081526020016040518060400160405280600581526020017f46554e4e59000000000000000000000000000000000000000000000000000000815250815250600a906006620003349291906200070f565b506040518060c001604052806040518060400160405280600681526020017f4b494e444c59000000000000000000000000000000000000000000000000000081525081526020016040518060400160405280600981526020017f4a45414c4f55534c59000000000000000000000000000000000000000000000081525081526020016040518060400160405280600681526020017f4e4541524c59000000000000000000000000000000000000000000000000000081525081526020016040518060400160405280600681526020017f525544454c59000000000000000000000000000000000000000000000000000081525081526020016040518060400160405280600681526020017f5348494c5659000000000000000000000000000000000000000000000000000081525081526020016040518060400160405280600881526020017f53554444454e4c59000000000000000000000000000000000000000000000000815250815250600b906006620004b29291906200070f565b50348015620004c057600080fd5b506040518060400160405280600981526020017f5371756172654e465400000000000000000000000000000000000000000000008152506040518060400160405280600681526020017f53515541524500000000000000000000000000000000000000000000000000008152508160009080519060200190620005459291906200067e565b5080600190805190602001906200055e9291906200067e565b505050620005ac6040518060400160405280601e81526020017f54686973206973206d79204e465420636f6e74726163742e2057686f61210000815250620005b260201b620010501760201c565b62000930565b6200065281604051602401620005c9919062000844565b6040516020818303038152906040527f41304fac000000000000000000000000000000000000000000000000000000007bffffffffffffffffffffffffffffffffffffffffffffffffffffffff19166020820180517bffffffffffffffffffffffffffffffffffffffffffffffffffffffff83818316178352505050506200065560201b60201c565b50565b60008151905060006a636f6e736f6c652e6c6f679050602083016000808483855afa5050505050565b8280546200068c90620008ba565b90600052602060002090601f016020900481019282620006b05760008555620006fc565b82601f10620006cb57805160ff1916838001178555620006fc565b82800160010185558215620006fc579182015b82811115620006fb578251825591602001919060010190620006de565b5b5090506200070b919062000776565b5090565b82805482825590600052602060002090810192821562000763579160200282015b8281111562000762578251829080519060200190620007519291906200067e565b509160200191906001019062000730565b5b50905062000772919062000795565b5090565b5b808211156200079157600081600090555060010162000777565b5090565b5b80821115620007b95760008181620007af9190620007bd565b5060010162000796565b5090565b508054620007cb90620008ba565b6000825580601f10620007df575062000800565b601f016020900490600052602060002090810190620007ff919062000776565b5b50565b6000620008108262000868565b6200081c818562000873565b93506200082e81856020860162000884565b62000839816200091f565b840191505092915050565b6000602082019050818103600083015262000860818462000803565b905092915050565b600081519050919050565b600082825260208201905092915050565b60005b83811015620008a457808201518184015260208101905062000887565b83811115620008b4576000848401525b50505050565b60006002820490506001821680620008d357607f821691505b60208210811415620008ea57620008e9620008f0565b5b50919050565b7f4e487b7100000000000000000000000000000000000000000000000000000000600052602260045260246000fd5b6000601f19601f8301169050919050565b613ac380620009406000396000f3fe608060405234801561001057600080fd5b50600436106100f55760003560e01c80636b5c6e0711610097578063b88d4fde11610066578063b88d4fde14610296578063c87b56dd146102b2578063de9d132f146102e2578063e985e9c5146102ec576100f5565b80636b5c6e07146101fc57806370a082311461022c57806395d89b411461025c578063a22cb4651461027a576100f5565b8063095ea7b3116100d3578063095ea7b31461017857806323b872dd1461019457806342842e0e146101b05780636352211e146101cc576100f5565b806301ffc9a7146100fa57806306fdde031461012a578063081812fc14610148575b600080fd5b610114600480360381019061010f9190612568565b61031c565b6040516101219190612c81565b60405180910390f35b6101326103fe565b60405161013f9190612c9c565b60405180910390f35b610162600480360381019061015d91906125ba565b610490565b60405161016f9190612bf1565b60405180910390f35b610192600480360381019061018d919061252c565b610515565b005b6101ae60048036038101906101a99190612426565b61062d565b005b6101ca60048036038101906101c59190612426565b61068d565b005b6101e660048036038101906101e191906125ba565b6106ad565b6040516101f39190612bf1565b60405180910390f35b610216600480360381019061021191906125e3565b61075f565b6040516102239190612c9c565b60405180910390f35b610246600480360381019061024191906123c1565b6107ee565b6040516102539190612efc565b60405180910390f35b6102646108a6565b6040516102719190612c9c565b60405180910390f35b610294600480360381019061028f91906124f0565b610938565b005b6102b060048036038101906102ab9190612475565b61094e565b005b6102cc60048036038101906102c791906125ba565b6109b0565b6040516102d99190612c9c565b60405180910390f35b6102ea610b02565b005b610306600480360381019061030191906123ea565b610fbc565b6040516103139190612c81565b60405180910390f35b60007f80ac58cd000000000000000000000000000000000000000000000000000000007bffffffffffffffffffffffffffffffffffffffffffffffffffffffff1916827bffffffffffffffffffffffffffffffffffffffffffffffffffffffff191614806103e757507f5b5e139f000000000000000000000000000000000000000000000000000000007bffffffffffffffffffffffffffffffffffffffffffffffffffffffff1916827bffffffffffffffffffffffffffffffffffffffffffffffffffffffff1916145b806103f757506103f6826110e9565b5b9050919050565b60606000805461040d906131ed565b80601f0160208091040260200160405190810160405280929190818152602001828054610439906131ed565b80156104865780601f1061045b57610100808354040283529160200191610486565b820191906000526020600020905b81548152906001019060200180831161046957829003601f168201915b5050505050905090565b600061049b82611153565b6104da576040517f08c379a00000000000000000000000000000000000000000000000000000000081526004016104d190612e5c565b60405180910390fd5b6004600083815260200190815260200160002060009054906101000a900473ffffffffffffffffffffffffffffffffffffffff169050919050565b6000610520826106ad565b90508073ffffffffffffffffffffffffffffffffffffffff168373ffffffffffffffffffffffffffffffffffffffff161415610591576040517f08c379a000000000000000000000000000000000000000000000000000000000815260040161058890612ebc565b60405180910390fd5b8073ffffffffffffffffffffffffffffffffffffffff166105b06111bf565b73ffffffffffffffffffffffffffffffffffffffff1614806105df57506105de816105d96111bf565b610fbc565b5b61061e576040517f08c379a000000000000000000000000000000000000000000000000000000000815260040161061590612d9c565b60405180910390fd5b61062883836111c7565b505050565b61063e6106386111bf565b82611280565b61067d576040517f08c379a000000000000000000000000000000000000000000000000000000000815260040161067490612edc565b60405180910390fd5b61068883838361135e565b505050565b6106a88383836040518060200160405280600081525061094e565b505050565b6000806002600084815260200190815260200160002060009054906101000a900473ffffffffffffffffffffffffffffffffffffffff169050600073ffffffffffffffffffffffffffffffffffffffff168173ffffffffffffffffffffffffffffffffffffffff161415610756576040517f08c379a000000000000000000000000000000000000000000000000000000000815260040161074d90612ddc565b60405180910390fd5b80915050919050565b6060600061079361076f856115ba565b60405160200161077f9190612b68565b604051602081830303815290604052611767565b90508251816107a29190613299565b90508281815181106107dd577f4e487b7100000000000000000000000000000000000000000000000000000000600052603260045260246000fd5b602002602001015191505092915050565b60008073ffffffffffffffffffffffffffffffffffffffff168273ffffffffffffffffffffffffffffffffffffffff16141561085f576040517f08c379a000000000000000000000000000000000000000000000000000000000815260040161085690612dbc565b60405180910390fd5b600360008373ffffffffffffffffffffffffffffffffffffffff1673ffffffffffffffffffffffffffffffffffffffff168152602001908152602001600020549050919050565b6060600180546108b5906131ed565b80601f01602080910402602001604051908101604052809291908181526020018280546108e1906131ed565b801561092e5780601f106109035761010080835404028352916020019161092e565b820191906000526020600020905b81548152906001019060200180831161091157829003601f168201915b5050505050905090565b61094a6109436111bf565b838361179a565b5050565b61095f6109596111bf565b83611280565b61099e576040517f08c379a000000000000000000000000000000000000000000000000000000000815260040161099590612edc565b60405180910390fd5b6109aa84848484611907565b50505050565b60606109bb82611153565b6109fa576040517f08c379a00000000000000000000000000000000000000000000000000000000081526004016109f190612e3c565b60405180910390fd5b6000600660008481526020019081526020016000208054610a1a906131ed565b80601f0160208091040260200160405190810160405280929190818152602001828054610a46906131ed565b8015610a935780601f10610a6857610100808354040283529160200191610a93565b820191906000526020600020905b815481529060010190602001808311610a7657829003601f168201915b505050505090506000610aa4611963565b9050600081511415610aba578192505050610afd565b600082511115610aef578082604051602001610ad7929190612ac2565b60405160208183030381529060405292505050610afd565b610af88461197a565b925050505b919050565b6000610b0e6007611a21565b9050610b4e6040518060400160405280601581526020017f0a2d2d2d2d2d2d2d2d2d2d2d2d2d2d2d2d2d2d2d2d0000000000000000000000815250611050565b6000610c2b826009805480602002602001604051908101604052809291908181526020016000905b82821015610c22578382906000526020600020018054610b95906131ed565b80601f0160208091040260200160405190810160405280929190818152602001828054610bc1906131ed565b8015610c0e5780601f10610be357610100808354040283529160200191610c0e565b820191906000526020600020905b815481529060010190602001808311610bf157829003601f168201915b505050505081526020019060010190610b76565b5050505061075f565b90506000610d0a83600a805480602002602001604051908101604052809291908181526020016000905b82821015610d01578382906000526020600020018054610c74906131ed565b80601f0160208091040260200160405190810160405280929190818152602001828054610ca0906131ed565b8015610ced5780601f10610cc257610100808354040283529160200191610ced565b820191906000526020600020905b815481529060010190602001808311610cd057829003601f168201915b505050505081526020019060010190610c55565b5050505061075f565b90506000610de984600b805480602002602001604051908101604052809291908181526020016000905b82821015610de0578382906000526020600020018054610d53906131ed565b80601f0160208091040260200160405190810160405280929190818152602001828054610d7f906131ed565b8015610dcc5780601f10610da157610100808354040283529160200191610dcc565b820191906000526020600020905b815481529060010190602001808311610daf57829003601f168201915b505050505081526020019060010190610d34565b5050505061075f565b90506000838383604051602001610e0293929190612ae6565b60405160208183030381529060405290506000600882604051602001610e29929190612b17565b60405160208183030381529060405290506000610e6e83610e4984611a2f565b604051602001610e5a929190612b8a565b604051602081830303815290604052611a2f565b9050600081604051602001610e839190612bcf565b6040516020818303038152906040529050610ed26040518060400160405280601581526020017f0a2d2d2d2d2d2d2d2d2d2d2d2d2d2d2d2d2d2d2d2d0000000000000000000000815250611050565b610efa81604051602001610ee69190612b46565b604051602081830303815290604052611050565b610f386040518060400160405280601581526020017f2d2d2d2d2d2d2d2d2d2d2d2d2d2d2d2d2d2d2d2d0a0000000000000000000000815250611050565b610f423389611bed565b610f4c8882611c0b565b610f566007611c7f565b610f79604051806060016040528060258152602001613a29602591398933611c95565b7febb98688741ffa4c7589bf325de30cf7becb63de567842e1ccdb6cb949fdc82c3389604051610faa929190612c58565b60405180910390a15050505050505050565b6000600560008473ffffffffffffffffffffffffffffffffffffffff1673ffffffffffffffffffffffffffffffffffffffff16815260200190815260200160002060008373ffffffffffffffffffffffffffffffffffffffff1673ffffffffffffffffffffffffffffffffffffffff16815260200190815260200160002060009054906101000a900460ff16905092915050565b6110e6816040516024016110649190612c9c565b6040516020818303038152906040527f41304fac000000000000000000000000000000000000000000000000000000007bffffffffffffffffffffffffffffffffffffffffffffffffffffffff19166020820180517bffffffffffffffffffffffffffffffffffffffffffffffffffffffff8381831617835250505050611d34565b50565b60007f01ffc9a7000000000000000000000000000000000000000000000000000000007bffffffffffffffffffffffffffffffffffffffffffffffffffffffff1916827bffffffffffffffffffffffffffffffffffffffffffffffffffffffff1916149050919050565b60008073ffffffffffffffffffffffffffffffffffffffff166002600084815260200190815260200160002060009054906101000a900473ffffffffffffffffffffffffffffffffffffffff1673ffffffffffffffffffffffffffffffffffffffff1614159050919050565b600033905090565b816004600083815260200190815260200160002060006101000a81548173ffffffffffffffffffffffffffffffffffffffff021916908373ffffffffffffffffffffffffffffffffffffffff160217905550808273ffffffffffffffffffffffffffffffffffffffff1661123a836106ad565b73ffffffffffffffffffffffffffffffffffffffff167f8c5be1e5ebec7d5bd14f71427d1e84f3dd0314c0f7b2291e5b200ac8c7c3b92560405160405180910390a45050565b600061128b82611153565b6112ca576040517f08c379a00000000000000000000000000000000000000000000000000000000081526004016112c190612d7c565b60405180910390fd5b60006112d5836106ad565b90508073ffffffffffffffffffffffffffffffffffffffff168473ffffffffffffffffffffffffffffffffffffffff16148061134457508373ffffffffffffffffffffffffffffffffffffffff1661132c84610490565b73ffffffffffffffffffffffffffffffffffffffff16145b8061135557506113548185610fbc565b5b91505092915050565b8273ffffffffffffffffffffffffffffffffffffffff1661137e826106ad565b73ffffffffffffffffffffffffffffffffffffffff16146113d4576040517f08c379a00000000000000000000000000000000000000000000000000000000081526004016113cb90612e7c565b60405180910390fd5b600073ffffffffffffffffffffffffffffffffffffffff168273ffffffffffffffffffffffffffffffffffffffff161415611444576040517f08c379a000000000000000000000000000000000000000000000000000000000815260040161143b90612d3c565b60405180910390fd5b61144f838383611d5d565b61145a6000826111c7565b6001600360008573ffffffffffffffffffffffffffffffffffffffff1673ffffffffffffffffffffffffffffffffffffffff16815260200190815260200160002060008282546114aa9190613103565b925050819055506001600360008473ffffffffffffffffffffffffffffffffffffffff1673ffffffffffffffffffffffffffffffffffffffff16815260200190815260200160002060008282546115019190613022565b92505081905550816002600083815260200190815260200160002060006101000a81548173ffffffffffffffffffffffffffffffffffffffff021916908373ffffffffffffffffffffffffffffffffffffffff160217905550808273ffffffffffffffffffffffffffffffffffffffff168473ffffffffffffffffffffffffffffffffffffffff167fddf252ad1be2c89b69c2b068fc378daa952ba7f163c4a11628f55a4df523b3ef60405160405180910390a4505050565b60606000821415611602576040518060400160405280600181526020017f30000000000000000000000000000000000000000000000000000000000000008152509050611762565b600082905060005b6000821461163457808061161d90613250565b915050600a8261162d9190613078565b915061160a565b60008167ffffffffffffffff811115611676577f4e487b7100000000000000000000000000000000000000000000000000000000600052604160045260246000fd5b6040519080825280601f01601f1916602001820160405280156116a85781602001600182028036833780820191505090505b5090505b6000851461175b576001826116c19190613103565b9150600a856116d09190613299565b60306116dc9190613022565b60f81b818381518110611718577f4e487b7100000000000000000000000000000000000000000000000000000000600052603260045260246000fd5b60200101907effffffffffffffffffffffffffffffffffffffffffffffffffffffffffffff1916908160001a905350600a856117549190613078565b94506116ac565b8093505050505b919050565b60008160405160200161177a9190612aab565b6040516020818303038152906040528051906020012060001c9050919050565b8173ffffffffffffffffffffffffffffffffffffffff168373ffffffffffffffffffffffffffffffffffffffff161415611809576040517f08c379a000000000000000000000000000000000000000000000000000000000815260040161180090612d5c565b60405180910390fd5b80600560008573ffffffffffffffffffffffffffffffffffffffff1673ffffffffffffffffffffffffffffffffffffffff16815260200190815260200160002060008473ffffffffffffffffffffffffffffffffffffffff1673ffffffffffffffffffffffffffffffffffffffff16815260200190815260200160002060006101000a81548160ff0219169083151502179055508173ffffffffffffffffffffffffffffffffffffffff168373ffffffffffffffffffffffffffffffffffffffff167f17307eab39ab6107e8899845ad3d59bd9653f200f220920489ca2b5937696c31836040516118fa9190612c81565b60405180910390a3505050565b61191284848461135e565b61191e84848484611d62565b61195d576040517f08c379a000000000000000000000000000000000000000000000000000000000815260040161195490612cfc565b60405180910390fd5b50505050565b606060405180602001604052806000815250905090565b606061198582611153565b6119c4576040517f08c379a00000000000000000000000000000000000000000000000000000000081526004016119bb90612e9c565b60405180910390fd5b60006119ce611963565b905060008151116119ee5760405180602001604052806000815250611a19565b806119f8846115ba565b604051602001611a09929190612ac2565b6040516020818303038152906040525b915050919050565b600081600001549050919050565b60606000825190506000811415611a585760405180602001604052806000815250915050611be8565b60006003600283611a699190613022565b611a739190613078565b6004611a7f91906130a9565b90506000602082611a909190613022565b67ffffffffffffffff811115611acf577f4e487b7100000000000000000000000000000000000000000000000000000000600052604160045260246000fd5b6040519080825280601f01601f191660200182016040528015611b015781602001600182028036833780820191505090505b5090506000604051806060016040528060408152602001613a4e604091399050600181016020830160005b86811015611ba55760038101905062ffffff818a015116603f8160121c168401518060081b905060ff603f83600c1c1686015116810190508060081b905060ff603f8360061c1686015116810190508060081b905060ff603f831686015116810190508060e01b90508084526004840193505050611b2c565b506003860660018114611bbf5760028114611bcf57611bda565b613d3d60f01b6002830352611bda565b603d60f81b60018303525b508484525050819450505050505b919050565b611c07828260405180602001604052806000815250611ef9565b5050565b611c1482611153565b611c53576040517f08c379a0000000000000000000000000000000000000000000000000000000008152600401611c4a90612dfc565b60405180910390fd5b80600660008481526020019081526020016000209080519060200190611c7a929190612135565b505050565b6001816000016000828254019250508190555050565b611d2f838383604051602401611cad93929190612cbe565b6040516020818303038152906040527fe3849f79000000000000000000000000000000000000000000000000000000007bffffffffffffffffffffffffffffffffffffffffffffffffffffffff19166020820180517bffffffffffffffffffffffffffffffffffffffffffffffffffffffff8381831617835250505050611d34565b505050565b60008151905060006a636f6e736f6c652e6c6f679050602083016000808483855afa5050505050565b505050565b6000611d838473ffffffffffffffffffffffffffffffffffffffff16611f54565b15611eec578373ffffffffffffffffffffffffffffffffffffffff1663150b7a02611dac6111bf565b8786866040518563ffffffff1660e01b8152600401611dce9493929190612c0c565b602060405180830381600087803b158015611de857600080fd5b505af1925050508015611e1957506040513d601f19601f82011682018060405250810190611e169190612591565b60015b611e9c573d8060008114611e49576040519150601f19603f3d011682016040523d82523d6000602084013e611e4e565b606091505b50600081511415611e94576040517f08c379a0000000000000000000000000000000000000000000000000000000008152600401611e8b90612cfc565b60405180910390fd5b805181602001fd5b63150b7a0260e01b7bffffffffffffffffffffffffffffffffffffffffffffffffffffffff1916817bffffffffffffffffffffffffffffffffffffffffffffffffffffffff191614915050611ef1565b600190505b949350505050565b611f038383611f67565b611f106000848484611d62565b611f4f576040517f08c379a0000000000000000000000000000000000000000000000000000000008152600401611f4690612cfc565b60405180910390fd5b505050565b600080823b905060008111915050919050565b600073ffffffffffffffffffffffffffffffffffffffff168273ffffffffffffffffffffffffffffffffffffffff161415611fd7576040517f08c379a0000000000000000000000000000000000000000000000000000000008152600401611fce90612e1c565b60405180910390fd5b611fe081611153565b15612020576040517f08c379a000000000000000000000000000000000000000000000000000000000815260040161201790612d1c565b60405180910390fd5b61202c60008383611d5d565b6001600360008473ffffffffffffffffffffffffffffffffffffffff1673ffffffffffffffffffffffffffffffffffffffff168152602001908152602001600020600082825461207c9190613022565b92505081905550816002600083815260200190815260200160002060006101000a81548173ffffffffffffffffffffffffffffffffffffffff021916908373ffffffffffffffffffffffffffffffffffffffff160217905550808273ffffffffffffffffffffffffffffffffffffffff16600073ffffffffffffffffffffffffffffffffffffffff167fddf252ad1be2c89b69c2b068fc378daa952ba7f163c4a11628f55a4df523b3ef60405160405180910390a45050565b828054612141906131ed565b90600052602060002090601f01602090048101928261216357600085556121aa565b82601f1061217c57805160ff19168380011785556121aa565b828001600101855582156121aa579182015b828111156121a957825182559160200191906001019061218e565b5b5090506121b791906121bb565b5090565b5b808211156121d45760008160009055506001016121bc565b5090565b60006121eb6121e684612f3c565b612f17565b9050808382526020820190508285602086028201111561220a57600080fd5b60005b8581101561225457813567ffffffffffffffff81111561222c57600080fd5b8086016122398982612382565b8552602085019450602084019350505060018101905061220d565b5050509392505050565b600061227161226c84612f68565b612f17565b90508281526020810184848401111561228957600080fd5b6122948482856131ab565b509392505050565b60006122af6122aa84612f99565b612f17565b9050828152602081018484840111156122c757600080fd5b6122d28482856131ab565b509392505050565b6000813590506122e9816139cc565b92915050565b600082601f83011261230057600080fd5b81356123108482602086016121d8565b91505092915050565b600081359050612328816139e3565b92915050565b60008135905061233d816139fa565b92915050565b600081519050612352816139fa565b92915050565b600082601f83011261236957600080fd5b813561237984826020860161225e565b91505092915050565b600082601f83011261239357600080fd5b81356123a384826020860161229c565b91505092915050565b6000813590506123bb81613a11565b92915050565b6000602082840312156123d357600080fd5b60006123e1848285016122da565b91505092915050565b600080604083850312156123fd57600080fd5b600061240b858286016122da565b925050602061241c858286016122da565b9150509250929050565b60008060006060848603121561243b57600080fd5b6000612449868287016122da565b935050602061245a868287016122da565b925050604061246b868287016123ac565b9150509250925092565b6000806000806080858703121561248b57600080fd5b6000612499878288016122da565b94505060206124aa878288016122da565b93505060406124bb878288016123ac565b925050606085013567ffffffffffffffff8111156124d857600080fd5b6124e487828801612358565b91505092959194509250565b6000806040838503121561250357600080fd5b6000612511858286016122da565b925050602061252285828601612319565b9150509250929050565b6000806040838503121561253f57600080fd5b600061254d858286016122da565b925050602061255e858286016123ac565b9150509250929050565b60006020828403121561257a57600080fd5b60006125888482850161232e565b91505092915050565b6000602082840312156125a357600080fd5b60006125b184828501612343565b91505092915050565b6000602082840312156125cc57600080fd5b60006125da848285016123ac565b91505092915050565b600080604083850312156125f657600080fd5b6000612604858286016123ac565b925050602083013567ffffffffffffffff81111561262157600080fd5b61262d858286016122ef565b9150509250929050565b61264081613137565b82525050565b61264f81613149565b82525050565b600061266082612fdf565b61266a8185612ff5565b935061267a8185602086016131ba565b61268381613386565b840191505092915050565b600061269982612fea565b6126a38185613006565b93506126b38185602086016131ba565b6126bc81613386565b840191505092915050565b60006126d282612fea565b6126dc8185613017565b93506126ec8185602086016131ba565b80840191505092915050565b60008154612705816131ed565b61270f8186613017565b9450600182166000811461272a576001811461273b5761276e565b60ff1983168652818601935061276e565b61274485612fca565b60005b8381101561276657815481890152600182019150602081019050612747565b838801955050505b50505092915050565b6000612784602583613017565b915061278f82613397565b602582019050919050565b60006127a7603283613006565b91506127b2826133e6565b604082019050919050565b60006127ca601c83613006565b91506127d582613435565b602082019050919050565b60006127ed602483613006565b91506127f88261345e565b604082019050919050565b6000612810601983613006565b915061281b826134ad565b602082019050919050565b6000612833600c83613017565b915061283e826134d6565b600c82019050919050565b6000612856602c83613006565b9150612861826134ff565b604082019050919050565b6000612879600d83613017565b91506128848261354e565b600d82019050919050565b600061289c603883613006565b91506128a782613577565b604082019050919050565b60006128bf602a83613006565b91506128ca826135c6565b604082019050919050565b60006128e2602983613006565b91506128ed82613615565b604082019050919050565b6000612905602e83613006565b915061291082613664565b604082019050919050565b6000612928600283613017565b9150612933826136b3565b600282019050919050565b600061294b602083613006565b9150612956826136dc565b602082019050919050565b600061296e603183613006565b915061297982613705565b604082019050919050565b6000612991602c83613006565b915061299c82613754565b604082019050919050565b60006129b4602983613006565b91506129bf826137a3565b604082019050919050565b60006129d7606183613017565b91506129e2826137f2565b606182019050919050565b60006129fa602f83613006565b9150612a058261388d565b604082019050919050565b6000612a1d600a83613017565b9150612a28826138dc565b600a82019050919050565b6000612a40602183613006565b9150612a4b82613905565b604082019050919050565b6000612a63601d83613017565b9150612a6e82613954565b601d82019050919050565b6000612a86603183613006565b9150612a918261397d565b604082019050919050565b612aa5816131a1565b82525050565b6000612ab782846126c7565b915081905092915050565b6000612ace82856126c7565b9150612ada82846126c7565b91508190509392505050565b6000612af282866126c7565b9150612afe82856126c7565b9150612b0a82846126c7565b9150819050949350505050565b6000612b2382856126f8565b9150612b2f82846126c7565b9150612b3a8261286c565b91508190509392505050565b6000612b5182612777565b9150612b5d82846126c7565b915081905092915050565b6000612b7382612826565b9150612b7f82846126c7565b915081905092915050565b6000612b9582612a10565b9150612ba182856126c7565b9150612bac826129ca565b9150612bb882846126c7565b9150612bc38261291b565b91508190509392505050565b6000612bda82612a56565b9150612be682846126c7565b915081905092915050565b6000602082019050612c066000830184612637565b92915050565b6000608082019050612c216000830187612637565b612c2e6020830186612637565b612c3b6040830185612a9c565b8181036060830152612c4d8184612655565b905095945050505050565b6000604082019050612c6d6000830185612637565b612c7a6020830184612a9c565b9392505050565b6000602082019050612c966000830184612646565b92915050565b60006020820190508181036000830152612cb6818461268e565b905092915050565b60006060820190508181036000830152612cd8818661268e565b9050612ce76020830185612a9c565b612cf46040830184612637565b949350505050565b60006020820190508181036000830152612d158161279a565b9050919050565b60006020820190508181036000830152612d35816127bd565b9050919050565b60006020820190508181036000830152612d55816127e0565b9050919050565b60006020820190508181036000830152612d7581612803565b9050919050565b60006020820190508181036000830152612d9581612849565b9050919050565b60006020820190508181036000830152612db58161288f565b9050919050565b60006020820190508181036000830152612dd5816128b2565b9050919050565b60006020820190508181036000830152612df5816128d5565b9050919050565b60006020820190508181036000830152612e15816128f8565b9050919050565b60006020820190508181036000830152612e358161293e565b9050919050565b60006020820190508181036000830152612e5581612961565b9050919050565b60006020820190508181036000830152612e7581612984565b9050919050565b60006020820190508181036000830152612e95816129a7565b9050919050565b60006020820190508181036000830152612eb5816129ed565b9050919050565b60006020820190508181036000830152612ed581612a33565b9050919050565b60006020820190508181036000830152612ef581612a79565b9050919050565b6000602082019050612f116000830184612a9c565b92915050565b6000612f21612f32565b9050612f2d828261321f565b919050565b6000604051905090565b600067ffffffffffffffff821115612f5757612f56613357565b5b602082029050602081019050919050565b600067ffffffffffffffff821115612f8357612f82613357565b5b612f8c82613386565b9050602081019050919050565b600067ffffffffffffffff821115612fb457612fb3613357565b5b612fbd82613386565b9050602081019050919050565b60008190508160005260206000209050919050565b600081519050919050565b600081519050919050565b600082825260208201905092915050565b600082825260208201905092915050565b600081905092915050565b600061302d826131a1565b9150613038836131a1565b9250827fffffffffffffffffffffffffffffffffffffffffffffffffffffffffffffffff0382111561306d5761306c6132ca565b5b828201905092915050565b6000613083826131a1565b915061308e836131a1565b92508261309e5761309d6132f9565b5b828204905092915050565b60006130b4826131a1565b91506130bf836131a1565b9250817fffffffffffffffffffffffffffffffffffffffffffffffffffffffffffffffff04831182151516156130f8576130f76132ca565b5b828202905092915050565b600061310e826131a1565b9150613119836131a1565b92508282101561312c5761312b6132ca565b5b828203905092915050565b600061314282613181565b9050919050565b60008115159050919050565b60007fffffffff0000000000000000000000000000000000000000000000000000000082169050919050565b600073ffffffffffffffffffffffffffffffffffffffff82169050919050565b6000819050919050565b82818337600083830152505050565b60005b838110156131d85780820151818401526020810190506131bd565b838111156131e7576000848401525b50505050565b6000600282049050600182168061320557607f821691505b6020821081141561321957613218613328565b5b50919050565b61322882613386565b810181811067ffffffffffffffff8211171561324757613246613357565b5b80604052505050565b600061325b826131a1565b91507fffffffffffffffffffffffffffffffffffffffffffffffffffffffffffffffff82141561328e5761328d6132ca565b5b600182019050919050565b60006132a4826131a1565b91506132af836131a1565b9250826132bf576132be6132f9565b5b828206905092915050565b7f4e487b7100000000000000000000000000000000000000000000000000000000600052601160045260246000fd5b7f4e487b7100000000000000000000000000000000000000000000000000000000600052601260045260246000fd5b7f4e487b7100000000000000000000000000000000000000000000000000000000600052602260045260246000fd5b7f4e487b7100000000000000000000000000000000000000000000000000000000600052604160045260246000fd5b6000601f19601f8301169050919050565b7f68747470733a2f2f6e6674707265766965772e30786465762e636f6465732f3f60008201527f636f64653d000000000000000000000000000000000000000000000000000000602082015250565b7f4552433732313a207472616e7366657220746f206e6f6e20455243373231526560008201527f63656976657220696d706c656d656e7465720000000000000000000000000000602082015250565b7f4552433732313a20746f6b656e20616c7265616479206d696e74656400000000600082015250565b7f4552433732313a207472616e7366657220746f20746865207a65726f2061646460008201527f7265737300000000000000000000000000000000000000000000000000000000602082015250565b7f4552433732313a20617070726f766520746f2063616c6c657200000000000000600082015250565b7f4d4958494e475f574f5244530000000000000000000000000000000000000000600082015250565b7f4552433732313a206f70657261746f7220717565727920666f72206e6f6e657860008201527f697374656e7420746f6b656e0000000000000000000000000000000000000000602082015250565b7f3c2f746578743e3c2f7376673e00000000000000000000000000000000000000600082015250565b7f4552433732313a20617070726f76652063616c6c6572206973206e6f74206f7760008201527f6e6572206e6f7220617070726f76656420666f7220616c6c0000000000000000602082015250565b7f4552433732313a2062616c616e636520717565727920666f7220746865207a6560008201527f726f206164647265737300000000000000000000000000000000000000000000602082015250565b7f4552433732313a206f776e657220717565727920666f72206e6f6e657869737460008201527f656e7420746f6b656e0000000000000000000000000000000000000000000000602082015250565b7f45524337323155524953746f726167653a2055524920736574206f66206e6f6e60008201527f6578697374656e7420746f6b656e000000000000000000000000000000000000602082015250565b7f227d000000000000000000000000000000000000000000000000000000000000600082015250565b7f4552433732313a206d696e7420746f20746865207a65726f2061646472657373600082015250565b7f45524337323155524953746f726167653a2055524920717565727920666f722060008201527f6e6f6e6578697374656e7420746f6b656e000000000000000000000000000000602082015250565b7f4552433732313a20617070726f76656420717565727920666f72206e6f6e657860008201527f697374656e7420746f6b656e0000000000000000000000000000000000000000602082015250565b7f4552433732313a207472616e73666572206f6620746f6b656e2074686174206960008201527f73206e6f74206f776e0000000000000000000000000000000000000000000000602082015250565b7f222c20226465736372697074696f6e223a20224120686967686c79206163636c60008201527f61696d656420636f6c6c656374696f6e206f6620776f7264732e222c2022696d60208201527f616765223a2022646174613a696d6167652f7376672b786d6c3b62617365363460408201527f2c00000000000000000000000000000000000000000000000000000000000000606082015250565b7f4552433732314d657461646174613a2055524920717565727920666f72206e6f60008201527f6e6578697374656e7420746f6b656e0000000000000000000000000000000000602082015250565b7f7b226e616d65223a202200000000000000000000000000000000000000000000600082015250565b7f4552433732313a20617070726f76616c20746f2063757272656e74206f776e6560008201527f7200000000000000000000000000000000000000000000000000000000000000602082015250565b7f646174613a6170706c69636174696f6e2f6a736f6e3b6261736536342c000000600082015250565b7f4552433732313a207472616e736665722063616c6c6572206973206e6f74206f60008201527f776e6572206e6f7220617070726f766564000000000000000000000000000000602082015250565b6139d581613137565b81146139e057600080fd5b50565b6139ec81613149565b81146139f757600080fd5b50565b613a0381613155565b8114613a0e57600080fd5b50565b613a1a816131a1565b8114613a2557600080fd5b5056fe416e204e465420772f20494420257320686173206265656e206d696e74656420746f2025734142434445464748494a4b4c4d4e4f505152535455565758595a6162636465666768696a6b6c6d6e6f707172737475767778797a303132333435363738392b2fa2646970667358221220c5f2c4a4a82d4293a0fe996251a29b5a49c4a33917b1f3b0c78583cb7ed493b064736f6c634300080400333c73766720786d6c6e733d27687474703a2f2f7777772e77332e6f72672f323030302f73766727207072657365727665417370656374526174696f3d27784d696e594d696e206d656574272076696577426f783d273020302033353020333530273e3c7374796c653e2e62617365207b2066696c6c3a2077686974653b20666f6e742d66616d696c793a2073657269663b20666f6e742d73697a653a20323470783b207d3c2f7374796c653e3c726563742077696474683d273130302527206865696768743d2731303025272066696c6c3d27626c61636b27202f3e3c7465787420783d273530252720793d273530252720636c6173733d27626173652720646f6d696e616e742d626173656c696e653d276d6964646c652720746578742d616e63686f723d276d6964646c65273e",
  "linkReferences": {},
  "deployedLinkReferences": {}
}